{"contracts/Zordshop.sol":{"Zordshop":{"abi":[{"inputs":[],"stateMutability":"nonpayable","type":"constructor"},{"anonymous":false,"inputs":[{"indexed":false,"internalType":"address","name":"buyer","type":"address"},{"indexed":false,"internalType":"uint256","name":"orderId","type":"uint256"},{"indexed":false,"internalType":"uint256","name":"itemId","type":"uint256"}],"name":"Buy","type":"event"},{"anonymous":false,"inputs":[{"indexed":false,"internalType":"string","name":"name","type":"string"},{"indexed":false,"internalType":"uint256","name":"cost","type":"uint256"},{"indexed":false,"internalType":"uint256","name":"quantity","type":"uint256"}],"name":"List","type":"event"},{"inputs":[{"internalType":"uint256","name":"_id","type":"uint256"}],"name":"buy","outputs":[],"stateMutability":"payable","type":"function"},{"inputs":[],"name":"getAllItems","outputs":[{"internalType":"uint256[]","name":"","type":"uint256[]"},{"internalType":"string[]","name":"","type":"string[]"},{"internalType":"string[]","name":"","type":"string[]"},{"internalType":"string[]","name":"","type":"string[]"},{"internalType":"uint256[]","name":"","type":"uint256[]"},{"internalType":"uint256[]","name":"","type":"uint256[]"},{"internalType":"uint256[]","name":"","type":"uint256[]"}],"stateMutability":"view","type":"function"},{"inputs":[],"name":"itemCounter","outputs":[{"internalType":"uint256","name":"","type":"uint256"}],"stateMutability":"view","type":"function"},{"inputs":[{"internalType":"uint256","name":"","type":"uint256"}],"name":"items","outputs":[{"internalType":"uint256","name":"id","type":"uint256"},{"internalType":"string","name":"name","type":"string"},{"internalType":"string","name":"category","type":"string"},{"internalType":"string","name":"image","type":"string"},{"internalType":"uint256","name":"cost","type":"uint256"},{"internalType":"uint256","name":"rating","type":"uint256"},{"internalType":"uint256","name":"stock","type":"uint256"}],"stateMutability":"view","type":"function"},{"inputs":[{"internalType":"uint256","name":"_id","type":"uint256"},{"internalType":"string","name":"_name","type":"string"},{"internalType":"string","name":"_category","type":"string"},{"internalType":"string","name":"_image","type":"string"},{"internalType":"uint256","name":"_cost","type":"uint256"},{"internalType":"uint256","name":"_rating","type":"uint256"},{"internalType":"uint256","name":"_stock","type":"uint256"}],"name":"list","outputs":[],"stateMutability":"nonpayable","type":"function"},{"inputs":[{"internalType":"address","name":"","type":"address"}],"name":"orderCount","outputs":[{"internalType":"uint256","name":"","type":"uint256"}],"stateMutability":"view","type":"function"},{"inputs":[{"internalType":"address","name":"","type":"address"},{"internalType":"uint256","name":"","type":"uint256"}],"name":"orders","outputs":[{"internalType":"uint256","name":"time","type":"uint256"},{"components":[{"internalType":"uint256","name":"id","type":"uint256"},{"internalType":"string","name":"name","type":"string"},{"internalType":"string","name":"category","type":"string"},{"internalType":"string","name":"image","type":"string"},{"internalType":"uint256","name":"cost","type":"uint256"},{"internalType":"uint256","name":"rating","type":"uint256"},{"internalType":"uint256","name":"stock","type":"uint256"}],"internalType":"struct Zordshop.Item","name":"item","type":"tuple"}],"stateMutability":"view","type":"function"},{"inputs":[],"name":"owner","outputs":[{"internalType":"address","name":"","type":"address"}],"stateMutability":"view","type":"function"},{"inputs":[],"name":"withdraw","outputs":[],"stateMutability":"nonpayable","type":"function"}],"evm":{"bytecode":{"linkReferences":{},"object":"608060405234801561001057600080fd5b50336000806101000a81548173ffffffffffffffffffffffffffffffffffffffff021916908373ffffffffffffffffffffffffffffffffffffffff160217905550611f4a806100606000396000f3fe6080604052600436106100865760003560e01c8063793b8c6d11610059578063793b8c6d1461013b5780638da5cb5b14610179578063bfb231d2146101a4578063d96a094a146101e7578063eea8a7e81461020357610086565b80633ccfd60b1461008b5780634ba1d6aa146100a25780636d6d00ed146100d3578063713d856b146100fe575b600080fd5b34801561009757600080fd5b506100a061022c565b005b3480156100ae57600080fd5b506100b761031e565b6040516100ca97969594939291906114a2565b60405180910390f35b3480156100df57600080fd5b506100e86108ae565b6040516100f59190611551565b60405180910390f35b34801561010a57600080fd5b50610125600480360381019061012091906115de565b6108b4565b6040516101329190611551565b60405180910390f35b34801561014757600080fd5b50610162600480360381019061015d9190611637565b6108cc565b604051610170929190611721565b60405180910390f35b34801561018557600080fd5b5061018e610ae5565b60405161019b9190611760565b60405180910390f35b3480156101b057600080fd5b506101cb60048036038101906101c6919061177b565b610b09565b6040516101de97969594939291906117f2565b60405180910390f35b61020160048036038101906101fc919061177b565b610ce3565b005b34801561020f57600080fd5b5061022a600480360381019061022591906119ab565b611133565b005b60008054906101000a900473ffffffffffffffffffffffffffffffffffffffff1673ffffffffffffffffffffffffffffffffffffffff163373ffffffffffffffffffffffffffffffffffffffff161461028457600080fd5b60008060009054906101000a900473ffffffffffffffffffffffffffffffffffffffff1673ffffffffffffffffffffffffffffffffffffffff16476040516102cb90611ad2565b60006040518083038185875af1925050503d8060008114610308576040519150601f19603f3d011682016040523d82523d6000602084013e61030d565b606091505b505090508061031b57600080fd5b50565b60608060608060608060606000600154905060008167ffffffffffffffff81111561034c5761034b611880565b5b60405190808252806020026020018201604052801561037a5781602001602082028036833780820191505090505b50905060008267ffffffffffffffff81111561039957610398611880565b5b6040519080825280602002602001820160405280156103cc57816020015b60608152602001906001900390816103b75790505b50905060008367ffffffffffffffff8111156103eb576103ea611880565b5b60405190808252806020026020018201604052801561041e57816020015b60608152602001906001900390816104095790505b50905060008467ffffffffffffffff81111561043d5761043c611880565b5b60405190808252806020026020018201604052801561047057816020015b606081526020019060019003908161045b5790505b50905060008567ffffffffffffffff81111561048f5761048e611880565b5b6040519080825280602002602001820160405280156104bd5781602001602082028036833780820191505090505b50905060008667ffffffffffffffff8111156104dc576104db611880565b5b60405190808252806020026020018201604052801561050a5781602001602082028036833780820191505090505b50905060008767ffffffffffffffff81111561052957610528611880565b5b6040519080825280602002602001820160405280156105575781602001602082028036833780820191505090505b50905060005b8881101561088757600260008281526020019081526020016000206000015488828151811061058f5761058e611ae7565b5b6020026020010181815250506002600082815260200190815260200160002060010180546105bc90611b45565b80601f01602080910402602001604051908101604052809291908181526020018280546105e890611b45565b80156106355780601f1061060a57610100808354040283529160200191610635565b820191906000526020600020905b81548152906001019060200180831161061857829003601f168201915b505050505087828151811061064d5761064c611ae7565b5b602002602001018190525060026000828152602001908152602001600020600201805461067990611b45565b80601f01602080910402602001604051908101604052809291908181526020018280546106a590611b45565b80156106f25780601f106106c7576101008083540402835291602001916106f2565b820191906000526020600020905b8154815290600101906020018083116106d557829003601f168201915b505050505086828151811061070a57610709611ae7565b5b602002602001018190525060026000828152602001908152602001600020600301805461073690611b45565b80601f016020809104026020016040519081016040528092919081815260200182805461076290611b45565b80156107af5780601f10610784576101008083540402835291602001916107af565b820191906000526020600020905b81548152906001019060200180831161079257829003601f168201915b50505050508582815181106107c7576107c6611ae7565b5b602002602001018190525060026000828152602001908152602001600020600401548482815181106107fc576107fb611ae7565b5b602002602001018181525050600260008281526020019081526020016000206005015483828151811061083257610831611ae7565b5b602002602001018181525050600260008281526020019081526020016000206006015482828151811061086857610867611ae7565b5b602002602001018181525050808061087f90611ba5565b91505061055d565b50868686868686869e509e509e509e509e509e509e50505050505050505090919293949596565b60015481565b60046020528060005260406000206000915090505481565b600360205281600052604060002060205280600052604060002060009150915050806000015490806001016040518060e00160405290816000820154815260200160018201805461091c90611b45565b80601f016020809104026020016040519081016040528092919081815260200182805461094890611b45565b80156109955780601f1061096a57610100808354040283529160200191610995565b820191906000526020600020905b81548152906001019060200180831161097857829003601f168201915b505050505081526020016002820180546109ae90611b45565b80601f01602080910402602001604051908101604052809291908181526020018280546109da90611b45565b8015610a275780601f106109fc57610100808354040283529160200191610a27565b820191906000526020600020905b815481529060010190602001808311610a0a57829003601f168201915b50505050508152602001600382018054610a4090611b45565b80601f0160208091040260200160405190810160405280929190818152602001828054610a6c90611b45565b8015610ab95780601f10610a8e57610100808354040283529160200191610ab9565b820191906000526020600020905b815481529060010190602001808311610a9c57829003601f168201915b505050505081526020016004820154815260200160058201548152602001600682015481525050905082565b60008054906101000a900473ffffffffffffffffffffffffffffffffffffffff1681565b6002602052806000526040600020600091509050806000015490806001018054610b3290611b45565b80601f0160208091040260200160405190810160405280929190818152602001828054610b5e90611b45565b8015610bab5780601f10610b8057610100808354040283529160200191610bab565b820191906000526020600020905b815481529060010190602001808311610b8e57829003601f168201915b505050505090806002018054610bc090611b45565b80601f0160208091040260200160405190810160405280929190818152602001828054610bec90611b45565b8015610c395780601f10610c0e57610100808354040283529160200191610c39565b820191906000526020600020905b815481529060010190602001808311610c1c57829003601f168201915b505050505090806003018054610c4e90611b45565b80601f0160208091040260200160405190810160405280929190818152602001828054610c7a90611b45565b8015610cc75780601f10610c9c57610100808354040283529160200191610cc7565b820191906000526020600020905b815481529060010190602001808311610caa57829003601f168201915b5050505050908060040154908060050154908060060154905087565b6000600260008381526020019081526020016000206040518060e001604052908160008201548152602001600182018054610d1d90611b45565b80601f0160208091040260200160405190810160405280929190818152602001828054610d4990611b45565b8015610d965780601f10610d6b57610100808354040283529160200191610d96565b820191906000526020600020905b815481529060010190602001808311610d7957829003601f168201915b50505050508152602001600282018054610daf90611b45565b80601f0160208091040260200160405190810160405280929190818152602001828054610ddb90611b45565b8015610e285780601f10610dfd57610100808354040283529160200191610e28565b820191906000526020600020905b815481529060010190602001808311610e0b57829003601f168201915b50505050508152602001600382018054610e4190611b45565b80601f0160208091040260200160405190810160405280929190818152602001828054610e6d90611b45565b8015610eba5780601f10610e8f57610100808354040283529160200191610eba565b820191906000526020600020905b815481529060010190602001808311610e9d57829003601f168201915b50505050508152602001600482015481526020016005820154815260200160068201548152505090508060800151341015610ef457600080fd5b60008160c0015111610f0557600080fd5b60006040518060400160405280428152602001838152509050600460003373ffffffffffffffffffffffffffffffffffffffff1673ffffffffffffffffffffffffffffffffffffffff1681526020019081526020016000206000815480929190610f6e90611ba5565b919050555080600360003373ffffffffffffffffffffffffffffffffffffffff1673ffffffffffffffffffffffffffffffffffffffff1681526020019081526020016000206000600460003373ffffffffffffffffffffffffffffffffffffffff1673ffffffffffffffffffffffffffffffffffffffff168152602001908152602001600020548152602001908152602001600020600082015181600001556020820151816001016000820151816000015560208201518160010190816110359190611d99565b50604082015181600201908161104b9190611d99565b5060608201518160030190816110619190611d99565b506080820151816004015560a0820151816005015560c08201518160060155505090505060018260c001516110969190611e6b565b60026000858152602001908152602001600020600601819055507f1cbc5ab135991bd2b6a4b034a04aa2aa086dac1371cb9b16b8b5e2ed6b036bed33600460003373ffffffffffffffffffffffffffffffffffffffff1673ffffffffffffffffffffffffffffffffffffffff16815260200190815260200160002054846000015160405161112693929190611e9f565b60405180910390a1505050565b60008054906101000a900473ffffffffffffffffffffffffffffffffffffffff1673ffffffffffffffffffffffffffffffffffffffff163373ffffffffffffffffffffffffffffffffffffffff161461118b57600080fd5b60006040518060e0016040528089815260200188815260200187815260200186815260200185815260200184815260200183815250905080600260008a81526020019081526020016000206000820151816000015560208201518160010190816111f59190611d99565b50604082015181600201908161120b9190611d99565b5060608201518160030190816112219190611d99565b506080820151816004015560a0820151816005015560c082015181600601559050507ffdbe2a012c10ec01592653978eaa09b5ca60b143a0e617505b2ebcbd911ec5b887858460405161127693929190611ed6565b60405180910390a15050505050505050565b600081519050919050565b600082825260208201905092915050565b6000819050602082019050919050565b6000819050919050565b6112c7816112b4565b82525050565b60006112d983836112be565b60208301905092915050565b6000602082019050919050565b60006112fd82611288565b6113078185611293565b9350611312836112a4565b8060005b8381101561134357815161132a88826112cd565b9750611335836112e5565b925050600181019050611316565b5085935050505092915050565b600081519050919050565b600082825260208201905092915050565b6000819050602082019050919050565b600081519050919050565b600082825260208201905092915050565b60005b838110156113b657808201518184015260208101905061139b565b60008484015250505050565b6000601f19601f8301169050919050565b60006113de8261137c565b6113e88185611387565b93506113f8818560208601611398565b611401816113c2565b840191505092915050565b600061141883836113d3565b905092915050565b6000602082019050919050565b600061143882611350565b611442818561135b565b9350836020820285016114548561136c565b8060005b858110156114905784840389528151611471858261140c565b945061147c83611420565b925060208a01995050600181019050611458565b50829750879550505050505092915050565b600060e08201905081810360008301526114bc818a6112f2565b905081810360208301526114d0818961142d565b905081810360408301526114e4818861142d565b905081810360608301526114f8818761142d565b9050818103608083015261150c81866112f2565b905081810360a083015261152081856112f2565b905081810360c083015261153481846112f2565b905098975050505050505050565b61154b816112b4565b82525050565b60006020820190506115666000830184611542565b92915050565b6000604051905090565b600080fd5b600080fd5b600073ffffffffffffffffffffffffffffffffffffffff82169050919050565b60006115ab82611580565b9050919050565b6115bb816115a0565b81146115c657600080fd5b50565b6000813590506115d8816115b2565b92915050565b6000602082840312156115f4576115f3611576565b5b6000611602848285016115c9565b91505092915050565b611614816112b4565b811461161f57600080fd5b50565b6000813590506116318161160b565b92915050565b6000806040838503121561164e5761164d611576565b5b600061165c858286016115c9565b925050602061166d85828601611622565b9150509250929050565b600060e08301600083015161168f60008601826112be565b50602083015184820360208601526116a782826113d3565b915050604083015184820360408601526116c182826113d3565b915050606083015184820360608601526116db82826113d3565b91505060808301516116f060808601826112be565b5060a083015161170360a08601826112be565b5060c083015161171660c08601826112be565b508091505092915050565b60006040820190506117366000830185611542565b81810360208301526117488184611677565b90509392505050565b61175a816115a0565b82525050565b60006020820190506117756000830184611751565b92915050565b60006020828403121561179157611790611576565b5b600061179f84828501611622565b91505092915050565b600082825260208201905092915050565b60006117c48261137c565b6117ce81856117a8565b93506117de818560208601611398565b6117e7816113c2565b840191505092915050565b600060e082019050611807600083018a611542565b818103602083015261181981896117b9565b9050818103604083015261182d81886117b9565b9050818103606083015261184181876117b9565b90506118506080830186611542565b61185d60a0830185611542565b61186a60c0830184611542565b98975050505050505050565b600080fd5b600080fd5b7f4e487b7100000000000000000000000000000000000000000000000000000000600052604160045260246000fd5b6118b8826113c2565b810181811067ffffffffffffffff821117156118d7576118d6611880565b5b80604052505050565b60006118ea61156c565b90506118f682826118af565b919050565b600067ffffffffffffffff82111561191657611915611880565b5b61191f826113c2565b9050602081019050919050565b82818337600083830152505050565b600061194e611949846118fb565b6118e0565b90508281526020810184848401111561196a5761196961187b565b5b61197584828561192c565b509392505050565b600082601f83011261199257611991611876565b5b81356119a284826020860161193b565b91505092915050565b600080600080600080600060e0888a0312156119ca576119c9611576565b5b60006119d88a828b01611622565b975050602088013567ffffffffffffffff8111156119f9576119f861157b565b5b611a058a828b0161197d565b965050604088013567ffffffffffffffff811115611a2657611a2561157b565b5b611a328a828b0161197d565b955050606088013567ffffffffffffffff811115611a5357611a5261157b565b5b611a5f8a828b0161197d565b9450506080611a708a828b01611622565b93505060a0611a818a828b01611622565b92505060c0611a928a828b01611622565b91505092959891949750929550565b600081905092915050565b50565b6000611abc600083611aa1565b9150611ac782611aac565b600082019050919050565b6000611add82611aaf565b9150819050919050565b7f4e487b7100000000000000000000000000000000000000000000000000000000600052603260045260246000fd5b7f4e487b7100000000000000000000000000000000000000000000000000000000600052602260045260246000fd5b60006002820490506001821680611b5d57607f821691505b602082108103611b7057611b6f611b16565b5b50919050565b7f4e487b7100000000000000000000000000000000000000000000000000000000600052601160045260246000fd5b6000611bb0826112b4565b91507fffffffffffffffffffffffffffffffffffffffffffffffffffffffffffffffff8203611be257611be1611b76565b5b600182019050919050565b60008190508160005260206000209050919050565b60006020601f8301049050919050565b600082821b905092915050565b600060088302611c4f7fffffffffffffffffffffffffffffffffffffffffffffffffffffffffffffffff82611c12565b611c598683611c12565b95508019841693508086168417925050509392505050565b6000819050919050565b6000611c96611c91611c8c846112b4565b611c71565b6112b4565b9050919050565b6000819050919050565b611cb083611c7b565b611cc4611cbc82611c9d565b848454611c1f565b825550505050565b600090565b611cd9611ccc565b611ce4818484611ca7565b505050565b5b81811015611d0857611cfd600082611cd1565b600181019050611cea565b5050565b601f821115611d4d57611d1e81611bed565b611d2784611c02565b81016020851015611d36578190505b611d4a611d4285611c02565b830182611ce9565b50505b505050565b600082821c905092915050565b6000611d7060001984600802611d52565b1980831691505092915050565b6000611d898383611d5f565b9150826002028217905092915050565b611da28261137c565b67ffffffffffffffff811115611dbb57611dba611880565b5b611dc58254611b45565b611dd0828285611d0c565b600060209050601f831160018114611e035760008415611df1578287015190505b611dfb8582611d7d565b865550611e63565b601f198416611e1186611bed565b60005b82811015611e3957848901518255600182019150602085019450602081019050611e14565b86831015611e565784890151611e52601f891682611d5f565b8355505b6001600288020188555050505b505050505050565b6000611e76826112b4565b9150611e81836112b4565b9250828203905081811115611e9957611e98611b76565b5b92915050565b6000606082019050611eb46000830186611751565b611ec16020830185611542565b611ece6040830184611542565b949350505050565b60006060820190508181036000830152611ef081866117b9565b9050611eff6020830185611542565b611f0c6040830184611542565b94935050505056fea2646970667358221220c45f666689b07953bbe8e7bdaeb9879677c0bb159af8d4ea3dcca4a282c1763b64736f6c63430008110033","opcodes":"PUSH1 0x80 PUSH1 0x40 MSTORE CALLVALUE DUP1 ISZERO PUSH2 0x10 JUMPI PUSH1 0x0 DUP1 REVERT JUMPDEST POP CALLER PUSH1 0x0 DUP1 PUSH2 0x100 EXP DUP2 SLOAD DUP2 PUSH20 0xFFFFFFFFFFFFFFFFFFFFFFFFFFFFFFFFFFFFFFFF MUL NOT AND SWAP1 DUP4 PUSH20 0xFFFFFFFFFFFFFFFFFFFFFFFFFFFFFFFFFFFFFFFF AND MUL OR SWAP1 SSTORE POP PUSH2 0x1F4A DUP1 PUSH2 0x60 PUSH1 0x0 CODECOPY PUSH1 0x0 RETURN INVALID PUSH1 0x80 PUSH1 0x40 MSTORE PUSH1 0x4 CALLDATASIZE LT PUSH2 0x86 JUMPI PUSH1 0x0 CALLDATALOAD PUSH1 0xE0 SHR DUP1 PUSH4 0x793B8C6D GT PUSH2 0x59 JUMPI DUP1 PUSH4 0x793B8C6D EQ PUSH2 0x13B JUMPI DUP1 PUSH4 0x8DA5CB5B EQ PUSH2 0x179 JUMPI DUP1 PUSH4 0xBFB231D2 EQ PUSH2 0x1A4 JUMPI DUP1 PUSH4 0xD96A094A EQ PUSH2 0x1E7 JUMPI DUP1 PUSH4 0xEEA8A7E8 EQ PUSH2 0x203 JUMPI PUSH2 0x86 JUMP JUMPDEST DUP1 PUSH4 0x3CCFD60B EQ PUSH2 0x8B JUMPI DUP1 PUSH4 0x4BA1D6AA EQ PUSH2 0xA2 JUMPI DUP1 PUSH4 0x6D6D00ED EQ PUSH2 0xD3 JUMPI DUP1 PUSH4 0x713D856B EQ PUSH2 0xFE JUMPI JUMPDEST PUSH1 0x0 DUP1 REVERT JUMPDEST CALLVALUE DUP1 ISZERO PUSH2 0x97 JUMPI PUSH1 0x0 DUP1 REVERT JUMPDEST POP PUSH2 0xA0 PUSH2 0x22C JUMP JUMPDEST STOP JUMPDEST CALLVALUE DUP1 ISZERO PUSH2 0xAE JUMPI PUSH1 0x0 DUP1 REVERT JUMPDEST POP PUSH2 0xB7 PUSH2 0x31E JUMP JUMPDEST PUSH1 0x40 MLOAD PUSH2 0xCA SWAP8 SWAP7 SWAP6 SWAP5 SWAP4 SWAP3 SWAP2 SWAP1 PUSH2 0x14A2 JUMP JUMPDEST PUSH1 0x40 MLOAD DUP1 SWAP2 SUB SWAP1 RETURN JUMPDEST CALLVALUE DUP1 ISZERO PUSH2 0xDF JUMPI PUSH1 0x0 DUP1 REVERT JUMPDEST POP PUSH2 0xE8 PUSH2 0x8AE JUMP JUMPDEST PUSH1 0x40 MLOAD PUSH2 0xF5 SWAP2 SWAP1 PUSH2 0x1551 JUMP JUMPDEST PUSH1 0x40 MLOAD DUP1 SWAP2 SUB SWAP1 RETURN JUMPDEST CALLVALUE DUP1 ISZERO PUSH2 0x10A JUMPI PUSH1 0x0 DUP1 REVERT JUMPDEST POP PUSH2 0x125 PUSH1 0x4 DUP1 CALLDATASIZE SUB DUP2 ADD SWAP1 PUSH2 0x120 SWAP2 SWAP1 PUSH2 0x15DE JUMP JUMPDEST PUSH2 0x8B4 JUMP JUMPDEST PUSH1 0x40 MLOAD PUSH2 0x132 SWAP2 SWAP1 PUSH2 0x1551 JUMP JUMPDEST PUSH1 0x40 MLOAD DUP1 SWAP2 SUB SWAP1 RETURN JUMPDEST CALLVALUE DUP1 ISZERO PUSH2 0x147 JUMPI PUSH1 0x0 DUP1 REVERT JUMPDEST POP PUSH2 0x162 PUSH1 0x4 DUP1 CALLDATASIZE SUB DUP2 ADD SWAP1 PUSH2 0x15D SWAP2 SWAP1 PUSH2 0x1637 JUMP JUMPDEST PUSH2 0x8CC JUMP JUMPDEST PUSH1 0x40 MLOAD PUSH2 0x170 SWAP3 SWAP2 SWAP1 PUSH2 0x1721 JUMP JUMPDEST PUSH1 0x40 MLOAD DUP1 SWAP2 SUB SWAP1 RETURN JUMPDEST CALLVALUE DUP1 ISZERO PUSH2 0x185 JUMPI PUSH1 0x0 DUP1 REVERT JUMPDEST POP PUSH2 0x18E PUSH2 0xAE5 JUMP JUMPDEST PUSH1 0x40 MLOAD PUSH2 0x19B SWAP2 SWAP1 PUSH2 0x1760 JUMP JUMPDEST PUSH1 0x40 MLOAD DUP1 SWAP2 SUB SWAP1 RETURN JUMPDEST CALLVALUE DUP1 ISZERO PUSH2 0x1B0 JUMPI PUSH1 0x0 DUP1 REVERT JUMPDEST POP PUSH2 0x1CB PUSH1 0x4 DUP1 CALLDATASIZE SUB DUP2 ADD SWAP1 PUSH2 0x1C6 SWAP2 SWAP1 PUSH2 0x177B JUMP JUMPDEST PUSH2 0xB09 JUMP JUMPDEST PUSH1 0x40 MLOAD PUSH2 0x1DE SWAP8 SWAP7 SWAP6 SWAP5 SWAP4 SWAP3 SWAP2 SWAP1 PUSH2 0x17F2 JUMP JUMPDEST PUSH1 0x40 MLOAD DUP1 SWAP2 SUB SWAP1 RETURN JUMPDEST PUSH2 0x201 PUSH1 0x4 DUP1 CALLDATASIZE SUB DUP2 ADD SWAP1 PUSH2 0x1FC SWAP2 SWAP1 PUSH2 0x177B JUMP JUMPDEST PUSH2 0xCE3 JUMP JUMPDEST STOP JUMPDEST CALLVALUE DUP1 ISZERO PUSH2 0x20F JUMPI PUSH1 0x0 DUP1 REVERT JUMPDEST POP PUSH2 0x22A PUSH1 0x4 DUP1 CALLDATASIZE SUB DUP2 ADD SWAP1 PUSH2 0x225 SWAP2 SWAP1 PUSH2 0x19AB JUMP JUMPDEST PUSH2 0x1133 JUMP JUMPDEST STOP JUMPDEST PUSH1 0x0 DUP1 SLOAD SWAP1 PUSH2 0x100 EXP SWAP1 DIV PUSH20 0xFFFFFFFFFFFFFFFFFFFFFFFFFFFFFFFFFFFFFFFF AND PUSH20 0xFFFFFFFFFFFFFFFFFFFFFFFFFFFFFFFFFFFFFFFF AND CALLER PUSH20 0xFFFFFFFFFFFFFFFFFFFFFFFFFFFFFFFFFFFFFFFF AND EQ PUSH2 0x284 JUMPI PUSH1 0x0 DUP1 REVERT JUMPDEST PUSH1 0x0 DUP1 PUSH1 0x0 SWAP1 SLOAD SWAP1 PUSH2 0x100 EXP SWAP1 DIV PUSH20 0xFFFFFFFFFFFFFFFFFFFFFFFFFFFFFFFFFFFFFFFF AND PUSH20 0xFFFFFFFFFFFFFFFFFFFFFFFFFFFFFFFFFFFFFFFF AND SELFBALANCE PUSH1 0x40 MLOAD PUSH2 0x2CB SWAP1 PUSH2 0x1AD2 JUMP JUMPDEST PUSH1 0x0 PUSH1 0x40 MLOAD DUP1 DUP4 SUB DUP2 DUP6 DUP8 GAS CALL SWAP3 POP POP POP RETURNDATASIZE DUP1 PUSH1 0x0 DUP2 EQ PUSH2 0x308 JUMPI PUSH1 0x40 MLOAD SWAP2 POP PUSH1 0x1F NOT PUSH1 0x3F RETURNDATASIZE ADD AND DUP3 ADD PUSH1 0x40 MSTORE RETURNDATASIZE DUP3 MSTORE RETURNDATASIZE PUSH1 0x0 PUSH1 0x20 DUP5 ADD RETURNDATACOPY PUSH2 0x30D JUMP JUMPDEST PUSH1 0x60 SWAP2 POP JUMPDEST POP POP SWAP1 POP DUP1 PUSH2 0x31B JUMPI PUSH1 0x0 DUP1 REVERT JUMPDEST POP JUMP JUMPDEST PUSH1 0x60 DUP1 PUSH1 0x60 DUP1 PUSH1 0x60 DUP1 PUSH1 0x60 PUSH1 0x0 PUSH1 0x1 SLOAD SWAP1 POP PUSH1 0x0 DUP2 PUSH8 0xFFFFFFFFFFFFFFFF DUP2 GT ISZERO PUSH2 0x34C JUMPI PUSH2 0x34B PUSH2 0x1880 JUMP JUMPDEST JUMPDEST PUSH1 0x40 MLOAD SWAP1 DUP1 DUP3 MSTORE DUP1 PUSH1 0x20 MUL PUSH1 0x20 ADD DUP3 ADD PUSH1 0x40 MSTORE DUP1 ISZERO PUSH2 0x37A JUMPI DUP2 PUSH1 0x20 ADD PUSH1 0x20 DUP3 MUL DUP1 CALLDATASIZE DUP4 CALLDATACOPY DUP1 DUP3 ADD SWAP2 POP POP SWAP1 POP JUMPDEST POP SWAP1 POP PUSH1 0x0 DUP3 PUSH8 0xFFFFFFFFFFFFFFFF DUP2 GT ISZERO PUSH2 0x399 JUMPI PUSH2 0x398 PUSH2 0x1880 JUMP JUMPDEST JUMPDEST PUSH1 0x40 MLOAD SWAP1 DUP1 DUP3 MSTORE DUP1 PUSH1 0x20 MUL PUSH1 0x20 ADD DUP3 ADD PUSH1 0x40 MSTORE DUP1 ISZERO PUSH2 0x3CC JUMPI DUP2 PUSH1 0x20 ADD JUMPDEST PUSH1 0x60 DUP2 MSTORE PUSH1 0x20 ADD SWAP1 PUSH1 0x1 SWAP1 SUB SWAP1 DUP2 PUSH2 0x3B7 JUMPI SWAP1 POP JUMPDEST POP SWAP1 POP PUSH1 0x0 DUP4 PUSH8 0xFFFFFFFFFFFFFFFF DUP2 GT ISZERO PUSH2 0x3EB JUMPI PUSH2 0x3EA PUSH2 0x1880 JUMP JUMPDEST JUMPDEST PUSH1 0x40 MLOAD SWAP1 DUP1 DUP3 MSTORE DUP1 PUSH1 0x20 MUL PUSH1 0x20 ADD DUP3 ADD PUSH1 0x40 MSTORE DUP1 ISZERO PUSH2 0x41E JUMPI DUP2 PUSH1 0x20 ADD JUMPDEST PUSH1 0x60 DUP2 MSTORE PUSH1 0x20 ADD SWAP1 PUSH1 0x1 SWAP1 SUB SWAP1 DUP2 PUSH2 0x409 JUMPI SWAP1 POP JUMPDEST POP SWAP1 POP PUSH1 0x0 DUP5 PUSH8 0xFFFFFFFFFFFFFFFF DUP2 GT ISZERO PUSH2 0x43D JUMPI PUSH2 0x43C PUSH2 0x1880 JUMP JUMPDEST JUMPDEST PUSH1 0x40 MLOAD SWAP1 DUP1 DUP3 MSTORE DUP1 PUSH1 0x20 MUL PUSH1 0x20 ADD DUP3 ADD PUSH1 0x40 MSTORE DUP1 ISZERO PUSH2 0x470 JUMPI DUP2 PUSH1 0x20 ADD JUMPDEST PUSH1 0x60 DUP2 MSTORE PUSH1 0x20 ADD SWAP1 PUSH1 0x1 SWAP1 SUB SWAP1 DUP2 PUSH2 0x45B JUMPI SWAP1 POP JUMPDEST POP SWAP1 POP PUSH1 0x0 DUP6 PUSH8 0xFFFFFFFFFFFFFFFF DUP2 GT ISZERO PUSH2 0x48F JUMPI PUSH2 0x48E PUSH2 0x1880 JUMP JUMPDEST JUMPDEST PUSH1 0x40 MLOAD SWAP1 DUP1 DUP3 MSTORE DUP1 PUSH1 0x20 MUL PUSH1 0x20 ADD DUP3 ADD PUSH1 0x40 MSTORE DUP1 ISZERO PUSH2 0x4BD JUMPI DUP2 PUSH1 0x20 ADD PUSH1 0x20 DUP3 MUL DUP1 CALLDATASIZE DUP4 CALLDATACOPY DUP1 DUP3 ADD SWAP2 POP POP SWAP1 POP JUMPDEST POP SWAP1 POP PUSH1 0x0 DUP7 PUSH8 0xFFFFFFFFFFFFFFFF DUP2 GT ISZERO PUSH2 0x4DC JUMPI PUSH2 0x4DB PUSH2 0x1880 JUMP JUMPDEST JUMPDEST PUSH1 0x40 MLOAD SWAP1 DUP1 DUP3 MSTORE DUP1 PUSH1 0x20 MUL PUSH1 0x20 ADD DUP3 ADD PUSH1 0x40 MSTORE DUP1 ISZERO PUSH2 0x50A JUMPI DUP2 PUSH1 0x20 ADD PUSH1 0x20 DUP3 MUL DUP1 CALLDATASIZE DUP4 CALLDATACOPY DUP1 DUP3 ADD SWAP2 POP POP SWAP1 POP JUMPDEST POP SWAP1 POP PUSH1 0x0 DUP8 PUSH8 0xFFFFFFFFFFFFFFFF DUP2 GT ISZERO PUSH2 0x529 JUMPI PUSH2 0x528 PUSH2 0x1880 JUMP JUMPDEST JUMPDEST PUSH1 0x40 MLOAD SWAP1 DUP1 DUP3 MSTORE DUP1 PUSH1 0x20 MUL PUSH1 0x20 ADD DUP3 ADD PUSH1 0x40 MSTORE DUP1 ISZERO PUSH2 0x557 JUMPI DUP2 PUSH1 0x20 ADD PUSH1 0x20 DUP3 MUL DUP1 CALLDATASIZE DUP4 CALLDATACOPY DUP1 DUP3 ADD SWAP2 POP POP SWAP1 POP JUMPDEST POP SWAP1 POP PUSH1 0x0 JUMPDEST DUP9 DUP2 LT ISZERO PUSH2 0x887 JUMPI PUSH1 0x2 PUSH1 0x0 DUP3 DUP2 MSTORE PUSH1 0x20 ADD SWAP1 DUP2 MSTORE PUSH1 0x20 ADD PUSH1 0x0 KECCAK256 PUSH1 0x0 ADD SLOAD DUP9 DUP3 DUP2 MLOAD DUP2 LT PUSH2 0x58F JUMPI PUSH2 0x58E PUSH2 0x1AE7 JUMP JUMPDEST JUMPDEST PUSH1 0x20 MUL PUSH1 0x20 ADD ADD DUP2 DUP2 MSTORE POP POP PUSH1 0x2 PUSH1 0x0 DUP3 DUP2 MSTORE PUSH1 0x20 ADD SWAP1 DUP2 MSTORE PUSH1 0x20 ADD PUSH1 0x0 KECCAK256 PUSH1 0x1 ADD DUP1 SLOAD PUSH2 0x5BC SWAP1 PUSH2 0x1B45 JUMP JUMPDEST DUP1 PUSH1 0x1F ADD PUSH1 0x20 DUP1 SWAP2 DIV MUL PUSH1 0x20 ADD PUSH1 0x40 MLOAD SWAP1 DUP2 ADD PUSH1 0x40 MSTORE DUP1 SWAP3 SWAP2 SWAP1 DUP2 DUP2 MSTORE PUSH1 0x20 ADD DUP3 DUP1 SLOAD PUSH2 0x5E8 SWAP1 PUSH2 0x1B45 JUMP JUMPDEST DUP1 ISZERO PUSH2 0x635 JUMPI DUP1 PUSH1 0x1F LT PUSH2 0x60A JUMPI PUSH2 0x100 DUP1 DUP4 SLOAD DIV MUL DUP4 MSTORE SWAP2 PUSH1 0x20 ADD SWAP2 PUSH2 0x635 JUMP JUMPDEST DUP3 ADD SWAP2 SWAP1 PUSH1 0x0 MSTORE PUSH1 0x20 PUSH1 0x0 KECCAK256 SWAP1 JUMPDEST DUP2 SLOAD DUP2 MSTORE SWAP1 PUSH1 0x1 ADD SWAP1 PUSH1 0x20 ADD DUP1 DUP4 GT PUSH2 0x618 JUMPI DUP3 SWAP1 SUB PUSH1 0x1F AND DUP3 ADD SWAP2 JUMPDEST POP POP POP POP POP DUP8 DUP3 DUP2 MLOAD DUP2 LT PUSH2 0x64D JUMPI PUSH2 0x64C PUSH2 0x1AE7 JUMP JUMPDEST JUMPDEST PUSH1 0x20 MUL PUSH1 0x20 ADD ADD DUP2 SWAP1 MSTORE POP PUSH1 0x2 PUSH1 0x0 DUP3 DUP2 MSTORE PUSH1 0x20 ADD SWAP1 DUP2 MSTORE PUSH1 0x20 ADD PUSH1 0x0 KECCAK256 PUSH1 0x2 ADD DUP1 SLOAD PUSH2 0x679 SWAP1 PUSH2 0x1B45 JUMP JUMPDEST DUP1 PUSH1 0x1F ADD PUSH1 0x20 DUP1 SWAP2 DIV MUL PUSH1 0x20 ADD PUSH1 0x40 MLOAD SWAP1 DUP2 ADD PUSH1 0x40 MSTORE DUP1 SWAP3 SWAP2 SWAP1 DUP2 DUP2 MSTORE PUSH1 0x20 ADD DUP3 DUP1 SLOAD PUSH2 0x6A5 SWAP1 PUSH2 0x1B45 JUMP JUMPDEST DUP1 ISZERO PUSH2 0x6F2 JUMPI DUP1 PUSH1 0x1F LT PUSH2 0x6C7 JUMPI PUSH2 0x100 DUP1 DUP4 SLOAD DIV MUL DUP4 MSTORE SWAP2 PUSH1 0x20 ADD SWAP2 PUSH2 0x6F2 JUMP JUMPDEST DUP3 ADD SWAP2 SWAP1 PUSH1 0x0 MSTORE PUSH1 0x20 PUSH1 0x0 KECCAK256 SWAP1 JUMPDEST DUP2 SLOAD DUP2 MSTORE SWAP1 PUSH1 0x1 ADD SWAP1 PUSH1 0x20 ADD DUP1 DUP4 GT PUSH2 0x6D5 JUMPI DUP3 SWAP1 SUB PUSH1 0x1F AND DUP3 ADD SWAP2 JUMPDEST POP POP POP POP POP DUP7 DUP3 DUP2 MLOAD DUP2 LT PUSH2 0x70A JUMPI PUSH2 0x709 PUSH2 0x1AE7 JUMP JUMPDEST JUMPDEST PUSH1 0x20 MUL PUSH1 0x20 ADD ADD DUP2 SWAP1 MSTORE POP PUSH1 0x2 PUSH1 0x0 DUP3 DUP2 MSTORE PUSH1 0x20 ADD SWAP1 DUP2 MSTORE PUSH1 0x20 ADD PUSH1 0x0 KECCAK256 PUSH1 0x3 ADD DUP1 SLOAD PUSH2 0x736 SWAP1 PUSH2 0x1B45 JUMP JUMPDEST DUP1 PUSH1 0x1F ADD PUSH1 0x20 DUP1 SWAP2 DIV MUL PUSH1 0x20 ADD PUSH1 0x40 MLOAD SWAP1 DUP2 ADD PUSH1 0x40 MSTORE DUP1 SWAP3 SWAP2 SWAP1 DUP2 DUP2 MSTORE PUSH1 0x20 ADD DUP3 DUP1 SLOAD PUSH2 0x762 SWAP1 PUSH2 0x1B45 JUMP JUMPDEST DUP1 ISZERO PUSH2 0x7AF JUMPI DUP1 PUSH1 0x1F LT PUSH2 0x784 JUMPI PUSH2 0x100 DUP1 DUP4 SLOAD DIV MUL DUP4 MSTORE SWAP2 PUSH1 0x20 ADD SWAP2 PUSH2 0x7AF JUMP JUMPDEST DUP3 ADD SWAP2 SWAP1 PUSH1 0x0 MSTORE PUSH1 0x20 PUSH1 0x0 KECCAK256 SWAP1 JUMPDEST DUP2 SLOAD DUP2 MSTORE SWAP1 PUSH1 0x1 ADD SWAP1 PUSH1 0x20 ADD DUP1 DUP4 GT PUSH2 0x792 JUMPI DUP3 SWAP1 SUB PUSH1 0x1F AND DUP3 ADD SWAP2 JUMPDEST POP POP POP POP POP DUP6 DUP3 DUP2 MLOAD DUP2 LT PUSH2 0x7C7 JUMPI PUSH2 0x7C6 PUSH2 0x1AE7 JUMP JUMPDEST JUMPDEST PUSH1 0x20 MUL PUSH1 0x20 ADD ADD DUP2 SWAP1 MSTORE POP PUSH1 0x2 PUSH1 0x0 DUP3 DUP2 MSTORE PUSH1 0x20 ADD SWAP1 DUP2 MSTORE PUSH1 0x20 ADD PUSH1 0x0 KECCAK256 PUSH1 0x4 ADD SLOAD DUP5 DUP3 DUP2 MLOAD DUP2 LT PUSH2 0x7FC JUMPI PUSH2 0x7FB PUSH2 0x1AE7 JUMP JUMPDEST JUMPDEST PUSH1 0x20 MUL PUSH1 0x20 ADD ADD DUP2 DUP2 MSTORE POP POP PUSH1 0x2 PUSH1 0x0 DUP3 DUP2 MSTORE PUSH1 0x20 ADD SWAP1 DUP2 MSTORE PUSH1 0x20 ADD PUSH1 0x0 KECCAK256 PUSH1 0x5 ADD SLOAD DUP4 DUP3 DUP2 MLOAD DUP2 LT PUSH2 0x832 JUMPI PUSH2 0x831 PUSH2 0x1AE7 JUMP JUMPDEST JUMPDEST PUSH1 0x20 MUL PUSH1 0x20 ADD ADD DUP2 DUP2 MSTORE POP POP PUSH1 0x2 PUSH1 0x0 DUP3 DUP2 MSTORE PUSH1 0x20 ADD SWAP1 DUP2 MSTORE PUSH1 0x20 ADD PUSH1 0x0 KECCAK256 PUSH1 0x6 ADD SLOAD DUP3 DUP3 DUP2 MLOAD DUP2 LT PUSH2 0x868 JUMPI PUSH2 0x867 PUSH2 0x1AE7 JUMP JUMPDEST JUMPDEST PUSH1 0x20 MUL PUSH1 0x20 ADD ADD DUP2 DUP2 MSTORE POP POP DUP1 DUP1 PUSH2 0x87F SWAP1 PUSH2 0x1BA5 JUMP JUMPDEST SWAP2 POP POP PUSH2 0x55D JUMP JUMPDEST POP DUP7 DUP7 DUP7 DUP7 DUP7 DUP7 DUP7 SWAP15 POP SWAP15 POP SWAP15 POP SWAP15 POP SWAP15 POP SWAP15 POP SWAP15 POP POP POP POP POP POP POP POP POP SWAP1 SWAP2 SWAP3 SWAP4 SWAP5 SWAP6 SWAP7 JUMP JUMPDEST PUSH1 0x1 SLOAD DUP2 JUMP JUMPDEST PUSH1 0x4 PUSH1 0x20 MSTORE DUP1 PUSH1 0x0 MSTORE PUSH1 0x40 PUSH1 0x0 KECCAK256 PUSH1 0x0 SWAP2 POP SWAP1 POP SLOAD DUP2 JUMP JUMPDEST PUSH1 0x3 PUSH1 0x20 MSTORE DUP2 PUSH1 0x0 MSTORE PUSH1 0x40 PUSH1 0x0 KECCAK256 PUSH1 0x20 MSTORE DUP1 PUSH1 0x0 MSTORE PUSH1 0x40 PUSH1 0x0 KECCAK256 PUSH1 0x0 SWAP2 POP SWAP2 POP POP DUP1 PUSH1 0x0 ADD SLOAD SWAP1 DUP1 PUSH1 0x1 ADD PUSH1 0x40 MLOAD DUP1 PUSH1 0xE0 ADD PUSH1 0x40 MSTORE SWAP1 DUP2 PUSH1 0x0 DUP3 ADD SLOAD DUP2 MSTORE PUSH1 0x20 ADD PUSH1 0x1 DUP3 ADD DUP1 SLOAD PUSH2 0x91C SWAP1 PUSH2 0x1B45 JUMP JUMPDEST DUP1 PUSH1 0x1F ADD PUSH1 0x20 DUP1 SWAP2 DIV MUL PUSH1 0x20 ADD PUSH1 0x40 MLOAD SWAP1 DUP2 ADD PUSH1 0x40 MSTORE DUP1 SWAP3 SWAP2 SWAP1 DUP2 DUP2 MSTORE PUSH1 0x20 ADD DUP3 DUP1 SLOAD PUSH2 0x948 SWAP1 PUSH2 0x1B45 JUMP JUMPDEST DUP1 ISZERO PUSH2 0x995 JUMPI DUP1 PUSH1 0x1F LT PUSH2 0x96A JUMPI PUSH2 0x100 DUP1 DUP4 SLOAD DIV MUL DUP4 MSTORE SWAP2 PUSH1 0x20 ADD SWAP2 PUSH2 0x995 JUMP JUMPDEST DUP3 ADD SWAP2 SWAP1 PUSH1 0x0 MSTORE PUSH1 0x20 PUSH1 0x0 KECCAK256 SWAP1 JUMPDEST DUP2 SLOAD DUP2 MSTORE SWAP1 PUSH1 0x1 ADD SWAP1 PUSH1 0x20 ADD DUP1 DUP4 GT PUSH2 0x978 JUMPI DUP3 SWAP1 SUB PUSH1 0x1F AND DUP3 ADD SWAP2 JUMPDEST POP POP POP POP POP DUP2 MSTORE PUSH1 0x20 ADD PUSH1 0x2 DUP3 ADD DUP1 SLOAD PUSH2 0x9AE SWAP1 PUSH2 0x1B45 JUMP JUMPDEST DUP1 PUSH1 0x1F ADD PUSH1 0x20 DUP1 SWAP2 DIV MUL PUSH1 0x20 ADD PUSH1 0x40 MLOAD SWAP1 DUP2 ADD PUSH1 0x40 MSTORE DUP1 SWAP3 SWAP2 SWAP1 DUP2 DUP2 MSTORE PUSH1 0x20 ADD DUP3 DUP1 SLOAD PUSH2 0x9DA SWAP1 PUSH2 0x1B45 JUMP JUMPDEST DUP1 ISZERO PUSH2 0xA27 JUMPI DUP1 PUSH1 0x1F LT PUSH2 0x9FC JUMPI PUSH2 0x100 DUP1 DUP4 SLOAD DIV MUL DUP4 MSTORE SWAP2 PUSH1 0x20 ADD SWAP2 PUSH2 0xA27 JUMP JUMPDEST DUP3 ADD SWAP2 SWAP1 PUSH1 0x0 MSTORE PUSH1 0x20 PUSH1 0x0 KECCAK256 SWAP1 JUMPDEST DUP2 SLOAD DUP2 MSTORE SWAP1 PUSH1 0x1 ADD SWAP1 PUSH1 0x20 ADD DUP1 DUP4 GT PUSH2 0xA0A JUMPI DUP3 SWAP1 SUB PUSH1 0x1F AND DUP3 ADD SWAP2 JUMPDEST POP POP POP POP POP DUP2 MSTORE PUSH1 0x20 ADD PUSH1 0x3 DUP3 ADD DUP1 SLOAD PUSH2 0xA40 SWAP1 PUSH2 0x1B45 JUMP JUMPDEST DUP1 PUSH1 0x1F ADD PUSH1 0x20 DUP1 SWAP2 DIV MUL PUSH1 0x20 ADD PUSH1 0x40 MLOAD SWAP1 DUP2 ADD PUSH1 0x40 MSTORE DUP1 SWAP3 SWAP2 SWAP1 DUP2 DUP2 MSTORE PUSH1 0x20 ADD DUP3 DUP1 SLOAD PUSH2 0xA6C SWAP1 PUSH2 0x1B45 JUMP JUMPDEST DUP1 ISZERO PUSH2 0xAB9 JUMPI DUP1 PUSH1 0x1F LT PUSH2 0xA8E JUMPI PUSH2 0x100 DUP1 DUP4 SLOAD DIV MUL DUP4 MSTORE SWAP2 PUSH1 0x20 ADD SWAP2 PUSH2 0xAB9 JUMP JUMPDEST DUP3 ADD SWAP2 SWAP1 PUSH1 0x0 MSTORE PUSH1 0x20 PUSH1 0x0 KECCAK256 SWAP1 JUMPDEST DUP2 SLOAD DUP2 MSTORE SWAP1 PUSH1 0x1 ADD SWAP1 PUSH1 0x20 ADD DUP1 DUP4 GT PUSH2 0xA9C JUMPI DUP3 SWAP1 SUB PUSH1 0x1F AND DUP3 ADD SWAP2 JUMPDEST POP POP POP POP POP DUP2 MSTORE PUSH1 0x20 ADD PUSH1 0x4 DUP3 ADD SLOAD DUP2 MSTORE PUSH1 0x20 ADD PUSH1 0x5 DUP3 ADD SLOAD DUP2 MSTORE PUSH1 0x20 ADD PUSH1 0x6 DUP3 ADD SLOAD DUP2 MSTORE POP POP SWAP1 POP DUP3 JUMP JUMPDEST PUSH1 0x0 DUP1 SLOAD SWAP1 PUSH2 0x100 EXP SWAP1 DIV PUSH20 0xFFFFFFFFFFFFFFFFFFFFFFFFFFFFFFFFFFFFFFFF AND DUP2 JUMP JUMPDEST PUSH1 0x2 PUSH1 0x20 MSTORE DUP1 PUSH1 0x0 MSTORE PUSH1 0x40 PUSH1 0x0 KECCAK256 PUSH1 0x0 SWAP2 POP SWAP1 POP DUP1 PUSH1 0x0 ADD SLOAD SWAP1 DUP1 PUSH1 0x1 ADD DUP1 SLOAD PUSH2 0xB32 SWAP1 PUSH2 0x1B45 JUMP JUMPDEST DUP1 PUSH1 0x1F ADD PUSH1 0x20 DUP1 SWAP2 DIV MUL PUSH1 0x20 ADD PUSH1 0x40 MLOAD SWAP1 DUP2 ADD PUSH1 0x40 MSTORE DUP1 SWAP3 SWAP2 SWAP1 DUP2 DUP2 MSTORE PUSH1 0x20 ADD DUP3 DUP1 SLOAD PUSH2 0xB5E SWAP1 PUSH2 0x1B45 JUMP JUMPDEST DUP1 ISZERO PUSH2 0xBAB JUMPI DUP1 PUSH1 0x1F LT PUSH2 0xB80 JUMPI PUSH2 0x100 DUP1 DUP4 SLOAD DIV MUL DUP4 MSTORE SWAP2 PUSH1 0x20 ADD SWAP2 PUSH2 0xBAB JUMP JUMPDEST DUP3 ADD SWAP2 SWAP1 PUSH1 0x0 MSTORE PUSH1 0x20 PUSH1 0x0 KECCAK256 SWAP1 JUMPDEST DUP2 SLOAD DUP2 MSTORE SWAP1 PUSH1 0x1 ADD SWAP1 PUSH1 0x20 ADD DUP1 DUP4 GT PUSH2 0xB8E JUMPI DUP3 SWAP1 SUB PUSH1 0x1F AND DUP3 ADD SWAP2 JUMPDEST POP POP POP POP POP SWAP1 DUP1 PUSH1 0x2 ADD DUP1 SLOAD PUSH2 0xBC0 SWAP1 PUSH2 0x1B45 JUMP JUMPDEST DUP1 PUSH1 0x1F ADD PUSH1 0x20 DUP1 SWAP2 DIV MUL PUSH1 0x20 ADD PUSH1 0x40 MLOAD SWAP1 DUP2 ADD PUSH1 0x40 MSTORE DUP1 SWAP3 SWAP2 SWAP1 DUP2 DUP2 MSTORE PUSH1 0x20 ADD DUP3 DUP1 SLOAD PUSH2 0xBEC SWAP1 PUSH2 0x1B45 JUMP JUMPDEST DUP1 ISZERO PUSH2 0xC39 JUMPI DUP1 PUSH1 0x1F LT PUSH2 0xC0E JUMPI PUSH2 0x100 DUP1 DUP4 SLOAD DIV MUL DUP4 MSTORE SWAP2 PUSH1 0x20 ADD SWAP2 PUSH2 0xC39 JUMP JUMPDEST DUP3 ADD SWAP2 SWAP1 PUSH1 0x0 MSTORE PUSH1 0x20 PUSH1 0x0 KECCAK256 SWAP1 JUMPDEST DUP2 SLOAD DUP2 MSTORE SWAP1 PUSH1 0x1 ADD SWAP1 PUSH1 0x20 ADD DUP1 DUP4 GT PUSH2 0xC1C JUMPI DUP3 SWAP1 SUB PUSH1 0x1F AND DUP3 ADD SWAP2 JUMPDEST POP POP POP POP POP SWAP1 DUP1 PUSH1 0x3 ADD DUP1 SLOAD PUSH2 0xC4E SWAP1 PUSH2 0x1B45 JUMP JUMPDEST DUP1 PUSH1 0x1F ADD PUSH1 0x20 DUP1 SWAP2 DIV MUL PUSH1 0x20 ADD PUSH1 0x40 MLOAD SWAP1 DUP2 ADD PUSH1 0x40 MSTORE DUP1 SWAP3 SWAP2 SWAP1 DUP2 DUP2 MSTORE PUSH1 0x20 ADD DUP3 DUP1 SLOAD PUSH2 0xC7A SWAP1 PUSH2 0x1B45 JUMP JUMPDEST DUP1 ISZERO PUSH2 0xCC7 JUMPI DUP1 PUSH1 0x1F LT PUSH2 0xC9C JUMPI PUSH2 0x100 DUP1 DUP4 SLOAD DIV MUL DUP4 MSTORE SWAP2 PUSH1 0x20 ADD SWAP2 PUSH2 0xCC7 JUMP JUMPDEST DUP3 ADD SWAP2 SWAP1 PUSH1 0x0 MSTORE PUSH1 0x20 PUSH1 0x0 KECCAK256 SWAP1 JUMPDEST DUP2 SLOAD DUP2 MSTORE SWAP1 PUSH1 0x1 ADD SWAP1 PUSH1 0x20 ADD DUP1 DUP4 GT PUSH2 0xCAA JUMPI DUP3 SWAP1 SUB PUSH1 0x1F AND DUP3 ADD SWAP2 JUMPDEST POP POP POP POP POP SWAP1 DUP1 PUSH1 0x4 ADD SLOAD SWAP1 DUP1 PUSH1 0x5 ADD SLOAD SWAP1 DUP1 PUSH1 0x6 ADD SLOAD SWAP1 POP DUP8 JUMP JUMPDEST PUSH1 0x0 PUSH1 0x2 PUSH1 0x0 DUP4 DUP2 MSTORE PUSH1 0x20 ADD SWAP1 DUP2 MSTORE PUSH1 0x20 ADD PUSH1 0x0 KECCAK256 PUSH1 0x40 MLOAD DUP1 PUSH1 0xE0 ADD PUSH1 0x40 MSTORE SWAP1 DUP2 PUSH1 0x0 DUP3 ADD SLOAD DUP2 MSTORE PUSH1 0x20 ADD PUSH1 0x1 DUP3 ADD DUP1 SLOAD PUSH2 0xD1D SWAP1 PUSH2 0x1B45 JUMP JUMPDEST DUP1 PUSH1 0x1F ADD PUSH1 0x20 DUP1 SWAP2 DIV MUL PUSH1 0x20 ADD PUSH1 0x40 MLOAD SWAP1 DUP2 ADD PUSH1 0x40 MSTORE DUP1 SWAP3 SWAP2 SWAP1 DUP2 DUP2 MSTORE PUSH1 0x20 ADD DUP3 DUP1 SLOAD PUSH2 0xD49 SWAP1 PUSH2 0x1B45 JUMP JUMPDEST DUP1 ISZERO PUSH2 0xD96 JUMPI DUP1 PUSH1 0x1F LT PUSH2 0xD6B JUMPI PUSH2 0x100 DUP1 DUP4 SLOAD DIV MUL DUP4 MSTORE SWAP2 PUSH1 0x20 ADD SWAP2 PUSH2 0xD96 JUMP JUMPDEST DUP3 ADD SWAP2 SWAP1 PUSH1 0x0 MSTORE PUSH1 0x20 PUSH1 0x0 KECCAK256 SWAP1 JUMPDEST DUP2 SLOAD DUP2 MSTORE SWAP1 PUSH1 0x1 ADD SWAP1 PUSH1 0x20 ADD DUP1 DUP4 GT PUSH2 0xD79 JUMPI DUP3 SWAP1 SUB PUSH1 0x1F AND DUP3 ADD SWAP2 JUMPDEST POP POP POP POP POP DUP2 MSTORE PUSH1 0x20 ADD PUSH1 0x2 DUP3 ADD DUP1 SLOAD PUSH2 0xDAF SWAP1 PUSH2 0x1B45 JUMP JUMPDEST DUP1 PUSH1 0x1F ADD PUSH1 0x20 DUP1 SWAP2 DIV MUL PUSH1 0x20 ADD PUSH1 0x40 MLOAD SWAP1 DUP2 ADD PUSH1 0x40 MSTORE DUP1 SWAP3 SWAP2 SWAP1 DUP2 DUP2 MSTORE PUSH1 0x20 ADD DUP3 DUP1 SLOAD PUSH2 0xDDB SWAP1 PUSH2 0x1B45 JUMP JUMPDEST DUP1 ISZERO PUSH2 0xE28 JUMPI DUP1 PUSH1 0x1F LT PUSH2 0xDFD JUMPI PUSH2 0x100 DUP1 DUP4 SLOAD DIV MUL DUP4 MSTORE SWAP2 PUSH1 0x20 ADD SWAP2 PUSH2 0xE28 JUMP JUMPDEST DUP3 ADD SWAP2 SWAP1 PUSH1 0x0 MSTORE PUSH1 0x20 PUSH1 0x0 KECCAK256 SWAP1 JUMPDEST DUP2 SLOAD DUP2 MSTORE SWAP1 PUSH1 0x1 ADD SWAP1 PUSH1 0x20 ADD DUP1 DUP4 GT PUSH2 0xE0B JUMPI DUP3 SWAP1 SUB PUSH1 0x1F AND DUP3 ADD SWAP2 JUMPDEST POP POP POP POP POP DUP2 MSTORE PUSH1 0x20 ADD PUSH1 0x3 DUP3 ADD DUP1 SLOAD PUSH2 0xE41 SWAP1 PUSH2 0x1B45 JUMP JUMPDEST DUP1 PUSH1 0x1F ADD PUSH1 0x20 DUP1 SWAP2 DIV MUL PUSH1 0x20 ADD PUSH1 0x40 MLOAD SWAP1 DUP2 ADD PUSH1 0x40 MSTORE DUP1 SWAP3 SWAP2 SWAP1 DUP2 DUP2 MSTORE PUSH1 0x20 ADD DUP3 DUP1 SLOAD PUSH2 0xE6D SWAP1 PUSH2 0x1B45 JUMP JUMPDEST DUP1 ISZERO PUSH2 0xEBA JUMPI DUP1 PUSH1 0x1F LT PUSH2 0xE8F JUMPI PUSH2 0x100 DUP1 DUP4 SLOAD DIV MUL DUP4 MSTORE SWAP2 PUSH1 0x20 ADD SWAP2 PUSH2 0xEBA JUMP JUMPDEST DUP3 ADD SWAP2 SWAP1 PUSH1 0x0 MSTORE PUSH1 0x20 PUSH1 0x0 KECCAK256 SWAP1 JUMPDEST DUP2 SLOAD DUP2 MSTORE SWAP1 PUSH1 0x1 ADD SWAP1 PUSH1 0x20 ADD DUP1 DUP4 GT PUSH2 0xE9D JUMPI DUP3 SWAP1 SUB PUSH1 0x1F AND DUP3 ADD SWAP2 JUMPDEST POP POP POP POP POP DUP2 MSTORE PUSH1 0x20 ADD PUSH1 0x4 DUP3 ADD SLOAD DUP2 MSTORE PUSH1 0x20 ADD PUSH1 0x5 DUP3 ADD SLOAD DUP2 MSTORE PUSH1 0x20 ADD PUSH1 0x6 DUP3 ADD SLOAD DUP2 MSTORE POP POP SWAP1 POP DUP1 PUSH1 0x80 ADD MLOAD CALLVALUE LT ISZERO PUSH2 0xEF4 JUMPI PUSH1 0x0 DUP1 REVERT JUMPDEST PUSH1 0x0 DUP2 PUSH1 0xC0 ADD MLOAD GT PUSH2 0xF05 JUMPI PUSH1 0x0 DUP1 REVERT JUMPDEST PUSH1 0x0 PUSH1 0x40 MLOAD DUP1 PUSH1 0x40 ADD PUSH1 0x40 MSTORE DUP1 TIMESTAMP DUP2 MSTORE PUSH1 0x20 ADD DUP4 DUP2 MSTORE POP SWAP1 POP PUSH1 0x4 PUSH1 0x0 CALLER PUSH20 0xFFFFFFFFFFFFFFFFFFFFFFFFFFFFFFFFFFFFFFFF AND PUSH20 0xFFFFFFFFFFFFFFFFFFFFFFFFFFFFFFFFFFFFFFFF AND DUP2 MSTORE PUSH1 0x20 ADD SWAP1 DUP2 MSTORE PUSH1 0x20 ADD PUSH1 0x0 KECCAK256 PUSH1 0x0 DUP2 SLOAD DUP1 SWAP3 SWAP2 SWAP1 PUSH2 0xF6E SWAP1 PUSH2 0x1BA5 JUMP JUMPDEST SWAP2 SWAP1 POP SSTORE POP DUP1 PUSH1 0x3 PUSH1 0x0 CALLER PUSH20 0xFFFFFFFFFFFFFFFFFFFFFFFFFFFFFFFFFFFFFFFF AND PUSH20 0xFFFFFFFFFFFFFFFFFFFFFFFFFFFFFFFFFFFFFFFF AND DUP2 MSTORE PUSH1 0x20 ADD SWAP1 DUP2 MSTORE PUSH1 0x20 ADD PUSH1 0x0 KECCAK256 PUSH1 0x0 PUSH1 0x4 PUSH1 0x0 CALLER PUSH20 0xFFFFFFFFFFFFFFFFFFFFFFFFFFFFFFFFFFFFFFFF AND PUSH20 0xFFFFFFFFFFFFFFFFFFFFFFFFFFFFFFFFFFFFFFFF AND DUP2 MSTORE PUSH1 0x20 ADD SWAP1 DUP2 MSTORE PUSH1 0x20 ADD PUSH1 0x0 KECCAK256 SLOAD DUP2 MSTORE PUSH1 0x20 ADD SWAP1 DUP2 MSTORE PUSH1 0x20 ADD PUSH1 0x0 KECCAK256 PUSH1 0x0 DUP3 ADD MLOAD DUP2 PUSH1 0x0 ADD SSTORE PUSH1 0x20 DUP3 ADD MLOAD DUP2 PUSH1 0x1 ADD PUSH1 0x0 DUP3 ADD MLOAD DUP2 PUSH1 0x0 ADD SSTORE PUSH1 0x20 DUP3 ADD MLOAD DUP2 PUSH1 0x1 ADD SWAP1 DUP2 PUSH2 0x1035 SWAP2 SWAP1 PUSH2 0x1D99 JUMP JUMPDEST POP PUSH1 0x40 DUP3 ADD MLOAD DUP2 PUSH1 0x2 ADD SWAP1 DUP2 PUSH2 0x104B SWAP2 SWAP1 PUSH2 0x1D99 JUMP JUMPDEST POP PUSH1 0x60 DUP3 ADD MLOAD DUP2 PUSH1 0x3 ADD SWAP1 DUP2 PUSH2 0x1061 SWAP2 SWAP1 PUSH2 0x1D99 JUMP JUMPDEST POP PUSH1 0x80 DUP3 ADD MLOAD DUP2 PUSH1 0x4 ADD SSTORE PUSH1 0xA0 DUP3 ADD MLOAD DUP2 PUSH1 0x5 ADD SSTORE PUSH1 0xC0 DUP3 ADD MLOAD DUP2 PUSH1 0x6 ADD SSTORE POP POP SWAP1 POP POP PUSH1 0x1 DUP3 PUSH1 0xC0 ADD MLOAD PUSH2 0x1096 SWAP2 SWAP1 PUSH2 0x1E6B JUMP JUMPDEST PUSH1 0x2 PUSH1 0x0 DUP6 DUP2 MSTORE PUSH1 0x20 ADD SWAP1 DUP2 MSTORE PUSH1 0x20 ADD PUSH1 0x0 KECCAK256 PUSH1 0x6 ADD DUP2 SWAP1 SSTORE POP PUSH32 0x1CBC5AB135991BD2B6A4B034A04AA2AA086DAC1371CB9B16B8B5E2ED6B036BED CALLER PUSH1 0x4 PUSH1 0x0 CALLER PUSH20 0xFFFFFFFFFFFFFFFFFFFFFFFFFFFFFFFFFFFFFFFF AND PUSH20 0xFFFFFFFFFFFFFFFFFFFFFFFFFFFFFFFFFFFFFFFF AND DUP2 MSTORE PUSH1 0x20 ADD SWAP1 DUP2 MSTORE PUSH1 0x20 ADD PUSH1 0x0 KECCAK256 SLOAD DUP5 PUSH1 0x0 ADD MLOAD PUSH1 0x40 MLOAD PUSH2 0x1126 SWAP4 SWAP3 SWAP2 SWAP1 PUSH2 0x1E9F JUMP JUMPDEST PUSH1 0x40 MLOAD DUP1 SWAP2 SUB SWAP1 LOG1 POP POP POP JUMP JUMPDEST PUSH1 0x0 DUP1 SLOAD SWAP1 PUSH2 0x100 EXP SWAP1 DIV PUSH20 0xFFFFFFFFFFFFFFFFFFFFFFFFFFFFFFFFFFFFFFFF AND PUSH20 0xFFFFFFFFFFFFFFFFFFFFFFFFFFFFFFFFFFFFFFFF AND CALLER PUSH20 0xFFFFFFFFFFFFFFFFFFFFFFFFFFFFFFFFFFFFFFFF AND EQ PUSH2 0x118B JUMPI PUSH1 0x0 DUP1 REVERT JUMPDEST PUSH1 0x0 PUSH1 0x40 MLOAD DUP1 PUSH1 0xE0 ADD PUSH1 0x40 MSTORE DUP1 DUP10 DUP2 MSTORE PUSH1 0x20 ADD DUP9 DUP2 MSTORE PUSH1 0x20 ADD DUP8 DUP2 MSTORE PUSH1 0x20 ADD DUP7 DUP2 MSTORE PUSH1 0x20 ADD DUP6 DUP2 MSTORE PUSH1 0x20 ADD DUP5 DUP2 MSTORE PUSH1 0x20 ADD DUP4 DUP2 MSTORE POP SWAP1 POP DUP1 PUSH1 0x2 PUSH1 0x0 DUP11 DUP2 MSTORE PUSH1 0x20 ADD SWAP1 DUP2 MSTORE PUSH1 0x20 ADD PUSH1 0x0 KECCAK256 PUSH1 0x0 DUP3 ADD MLOAD DUP2 PUSH1 0x0 ADD SSTORE PUSH1 0x20 DUP3 ADD MLOAD DUP2 PUSH1 0x1 ADD SWAP1 DUP2 PUSH2 0x11F5 SWAP2 SWAP1 PUSH2 0x1D99 JUMP JUMPDEST POP PUSH1 0x40 DUP3 ADD MLOAD DUP2 PUSH1 0x2 ADD SWAP1 DUP2 PUSH2 0x120B SWAP2 SWAP1 PUSH2 0x1D99 JUMP JUMPDEST POP PUSH1 0x60 DUP3 ADD MLOAD DUP2 PUSH1 0x3 ADD SWAP1 DUP2 PUSH2 0x1221 SWAP2 SWAP1 PUSH2 0x1D99 JUMP JUMPDEST POP PUSH1 0x80 DUP3 ADD MLOAD DUP2 PUSH1 0x4 ADD SSTORE PUSH1 0xA0 DUP3 ADD MLOAD DUP2 PUSH1 0x5 ADD SSTORE PUSH1 0xC0 DUP3 ADD MLOAD DUP2 PUSH1 0x6 ADD SSTORE SWAP1 POP POP PUSH32 0xFDBE2A012C10EC01592653978EAA09B5CA60B143A0E617505B2EBCBD911EC5B8 DUP8 DUP6 DUP5 PUSH1 0x40 MLOAD PUSH2 0x1276 SWAP4 SWAP3 SWAP2 SWAP1 PUSH2 0x1ED6 JUMP JUMPDEST PUSH1 0x40 MLOAD DUP1 SWAP2 SUB SWAP1 LOG1 POP POP POP POP POP POP POP POP JUMP JUMPDEST PUSH1 0x0 DUP2 MLOAD SWAP1 POP SWAP2 SWAP1 POP JUMP JUMPDEST PUSH1 0x0 DUP3 DUP3 MSTORE PUSH1 0x20 DUP3 ADD SWAP1 POP SWAP3 SWAP2 POP POP JUMP JUMPDEST PUSH1 0x0 DUP2 SWAP1 POP PUSH1 0x20 DUP3 ADD SWAP1 POP SWAP2 SWAP1 POP JUMP JUMPDEST PUSH1 0x0 DUP2 SWAP1 POP SWAP2 SWAP1 POP JUMP JUMPDEST PUSH2 0x12C7 DUP2 PUSH2 0x12B4 JUMP JUMPDEST DUP3 MSTORE POP POP JUMP JUMPDEST PUSH1 0x0 PUSH2 0x12D9 DUP4 DUP4 PUSH2 0x12BE JUMP JUMPDEST PUSH1 0x20 DUP4 ADD SWAP1 POP SWAP3 SWAP2 POP POP JUMP JUMPDEST PUSH1 0x0 PUSH1 0x20 DUP3 ADD SWAP1 POP SWAP2 SWAP1 POP JUMP JUMPDEST PUSH1 0x0 PUSH2 0x12FD DUP3 PUSH2 0x1288 JUMP JUMPDEST PUSH2 0x1307 DUP2 DUP6 PUSH2 0x1293 JUMP JUMPDEST SWAP4 POP PUSH2 0x1312 DUP4 PUSH2 0x12A4 JUMP JUMPDEST DUP1 PUSH1 0x0 JUMPDEST DUP4 DUP2 LT ISZERO PUSH2 0x1343 JUMPI DUP2 MLOAD PUSH2 0x132A DUP9 DUP3 PUSH2 0x12CD JUMP JUMPDEST SWAP8 POP PUSH2 0x1335 DUP4 PUSH2 0x12E5 JUMP JUMPDEST SWAP3 POP POP PUSH1 0x1 DUP2 ADD SWAP1 POP PUSH2 0x1316 JUMP JUMPDEST POP DUP6 SWAP4 POP POP POP POP SWAP3 SWAP2 POP POP JUMP JUMPDEST PUSH1 0x0 DUP2 MLOAD SWAP1 POP SWAP2 SWAP1 POP JUMP JUMPDEST PUSH1 0x0 DUP3 DUP3 MSTORE PUSH1 0x20 DUP3 ADD SWAP1 POP SWAP3 SWAP2 POP POP JUMP JUMPDEST PUSH1 0x0 DUP2 SWAP1 POP PUSH1 0x20 DUP3 ADD SWAP1 POP SWAP2 SWAP1 POP JUMP JUMPDEST PUSH1 0x0 DUP2 MLOAD SWAP1 POP SWAP2 SWAP1 POP JUMP JUMPDEST PUSH1 0x0 DUP3 DUP3 MSTORE PUSH1 0x20 DUP3 ADD SWAP1 POP SWAP3 SWAP2 POP POP JUMP JUMPDEST PUSH1 0x0 JUMPDEST DUP4 DUP2 LT ISZERO PUSH2 0x13B6 JUMPI DUP1 DUP3 ADD MLOAD DUP2 DUP5 ADD MSTORE PUSH1 0x20 DUP2 ADD SWAP1 POP PUSH2 0x139B JUMP JUMPDEST PUSH1 0x0 DUP5 DUP5 ADD MSTORE POP POP POP POP JUMP JUMPDEST PUSH1 0x0 PUSH1 0x1F NOT PUSH1 0x1F DUP4 ADD AND SWAP1 POP SWAP2 SWAP1 POP JUMP JUMPDEST PUSH1 0x0 PUSH2 0x13DE DUP3 PUSH2 0x137C JUMP JUMPDEST PUSH2 0x13E8 DUP2 DUP6 PUSH2 0x1387 JUMP JUMPDEST SWAP4 POP PUSH2 0x13F8 DUP2 DUP6 PUSH1 0x20 DUP7 ADD PUSH2 0x1398 JUMP JUMPDEST PUSH2 0x1401 DUP2 PUSH2 0x13C2 JUMP JUMPDEST DUP5 ADD SWAP2 POP POP SWAP3 SWAP2 POP POP JUMP JUMPDEST PUSH1 0x0 PUSH2 0x1418 DUP4 DUP4 PUSH2 0x13D3 JUMP JUMPDEST SWAP1 POP SWAP3 SWAP2 POP POP JUMP JUMPDEST PUSH1 0x0 PUSH1 0x20 DUP3 ADD SWAP1 POP SWAP2 SWAP1 POP JUMP JUMPDEST PUSH1 0x0 PUSH2 0x1438 DUP3 PUSH2 0x1350 JUMP JUMPDEST PUSH2 0x1442 DUP2 DUP6 PUSH2 0x135B JUMP JUMPDEST SWAP4 POP DUP4 PUSH1 0x20 DUP3 MUL DUP6 ADD PUSH2 0x1454 DUP6 PUSH2 0x136C JUMP JUMPDEST DUP1 PUSH1 0x0 JUMPDEST DUP6 DUP2 LT ISZERO PUSH2 0x1490 JUMPI DUP5 DUP5 SUB DUP10 MSTORE DUP2 MLOAD PUSH2 0x1471 DUP6 DUP3 PUSH2 0x140C JUMP JUMPDEST SWAP5 POP PUSH2 0x147C DUP4 PUSH2 0x1420 JUMP JUMPDEST SWAP3 POP PUSH1 0x20 DUP11 ADD SWAP10 POP POP PUSH1 0x1 DUP2 ADD SWAP1 POP PUSH2 0x1458 JUMP JUMPDEST POP DUP3 SWAP8 POP DUP8 SWAP6 POP POP POP POP POP POP SWAP3 SWAP2 POP POP JUMP JUMPDEST PUSH1 0x0 PUSH1 0xE0 DUP3 ADD SWAP1 POP DUP2 DUP2 SUB PUSH1 0x0 DUP4 ADD MSTORE PUSH2 0x14BC DUP2 DUP11 PUSH2 0x12F2 JUMP JUMPDEST SWAP1 POP DUP2 DUP2 SUB PUSH1 0x20 DUP4 ADD MSTORE PUSH2 0x14D0 DUP2 DUP10 PUSH2 0x142D JUMP JUMPDEST SWAP1 POP DUP2 DUP2 SUB PUSH1 0x40 DUP4 ADD MSTORE PUSH2 0x14E4 DUP2 DUP9 PUSH2 0x142D JUMP JUMPDEST SWAP1 POP DUP2 DUP2 SUB PUSH1 0x60 DUP4 ADD MSTORE PUSH2 0x14F8 DUP2 DUP8 PUSH2 0x142D JUMP JUMPDEST SWAP1 POP DUP2 DUP2 SUB PUSH1 0x80 DUP4 ADD MSTORE PUSH2 0x150C DUP2 DUP7 PUSH2 0x12F2 JUMP JUMPDEST SWAP1 POP DUP2 DUP2 SUB PUSH1 0xA0 DUP4 ADD MSTORE PUSH2 0x1520 DUP2 DUP6 PUSH2 0x12F2 JUMP JUMPDEST SWAP1 POP DUP2 DUP2 SUB PUSH1 0xC0 DUP4 ADD MSTORE PUSH2 0x1534 DUP2 DUP5 PUSH2 0x12F2 JUMP JUMPDEST SWAP1 POP SWAP9 SWAP8 POP POP POP POP POP POP POP POP JUMP JUMPDEST PUSH2 0x154B DUP2 PUSH2 0x12B4 JUMP JUMPDEST DUP3 MSTORE POP POP JUMP JUMPDEST PUSH1 0x0 PUSH1 0x20 DUP3 ADD SWAP1 POP PUSH2 0x1566 PUSH1 0x0 DUP4 ADD DUP5 PUSH2 0x1542 JUMP JUMPDEST SWAP3 SWAP2 POP POP JUMP JUMPDEST PUSH1 0x0 PUSH1 0x40 MLOAD SWAP1 POP SWAP1 JUMP JUMPDEST PUSH1 0x0 DUP1 REVERT JUMPDEST PUSH1 0x0 DUP1 REVERT JUMPDEST PUSH1 0x0 PUSH20 0xFFFFFFFFFFFFFFFFFFFFFFFFFFFFFFFFFFFFFFFF DUP3 AND SWAP1 POP SWAP2 SWAP1 POP JUMP JUMPDEST PUSH1 0x0 PUSH2 0x15AB DUP3 PUSH2 0x1580 JUMP JUMPDEST SWAP1 POP SWAP2 SWAP1 POP JUMP JUMPDEST PUSH2 0x15BB DUP2 PUSH2 0x15A0 JUMP JUMPDEST DUP2 EQ PUSH2 0x15C6 JUMPI PUSH1 0x0 DUP1 REVERT JUMPDEST POP JUMP JUMPDEST PUSH1 0x0 DUP2 CALLDATALOAD SWAP1 POP PUSH2 0x15D8 DUP2 PUSH2 0x15B2 JUMP JUMPDEST SWAP3 SWAP2 POP POP JUMP JUMPDEST PUSH1 0x0 PUSH1 0x20 DUP3 DUP5 SUB SLT ISZERO PUSH2 0x15F4 JUMPI PUSH2 0x15F3 PUSH2 0x1576 JUMP JUMPDEST JUMPDEST PUSH1 0x0 PUSH2 0x1602 DUP5 DUP3 DUP6 ADD PUSH2 0x15C9 JUMP JUMPDEST SWAP2 POP POP SWAP3 SWAP2 POP POP JUMP JUMPDEST PUSH2 0x1614 DUP2 PUSH2 0x12B4 JUMP JUMPDEST DUP2 EQ PUSH2 0x161F JUMPI PUSH1 0x0 DUP1 REVERT JUMPDEST POP JUMP JUMPDEST PUSH1 0x0 DUP2 CALLDATALOAD SWAP1 POP PUSH2 0x1631 DUP2 PUSH2 0x160B JUMP JUMPDEST SWAP3 SWAP2 POP POP JUMP JUMPDEST PUSH1 0x0 DUP1 PUSH1 0x40 DUP4 DUP6 SUB SLT ISZERO PUSH2 0x164E JUMPI PUSH2 0x164D PUSH2 0x1576 JUMP JUMPDEST JUMPDEST PUSH1 0x0 PUSH2 0x165C DUP6 DUP3 DUP7 ADD PUSH2 0x15C9 JUMP JUMPDEST SWAP3 POP POP PUSH1 0x20 PUSH2 0x166D DUP6 DUP3 DUP7 ADD PUSH2 0x1622 JUMP JUMPDEST SWAP2 POP POP SWAP3 POP SWAP3 SWAP1 POP JUMP JUMPDEST PUSH1 0x0 PUSH1 0xE0 DUP4 ADD PUSH1 0x0 DUP4 ADD MLOAD PUSH2 0x168F PUSH1 0x0 DUP7 ADD DUP3 PUSH2 0x12BE JUMP JUMPDEST POP PUSH1 0x20 DUP4 ADD MLOAD DUP5 DUP3 SUB PUSH1 0x20 DUP7 ADD MSTORE PUSH2 0x16A7 DUP3 DUP3 PUSH2 0x13D3 JUMP JUMPDEST SWAP2 POP POP PUSH1 0x40 DUP4 ADD MLOAD DUP5 DUP3 SUB PUSH1 0x40 DUP7 ADD MSTORE PUSH2 0x16C1 DUP3 DUP3 PUSH2 0x13D3 JUMP JUMPDEST SWAP2 POP POP PUSH1 0x60 DUP4 ADD MLOAD DUP5 DUP3 SUB PUSH1 0x60 DUP7 ADD MSTORE PUSH2 0x16DB DUP3 DUP3 PUSH2 0x13D3 JUMP JUMPDEST SWAP2 POP POP PUSH1 0x80 DUP4 ADD MLOAD PUSH2 0x16F0 PUSH1 0x80 DUP7 ADD DUP3 PUSH2 0x12BE JUMP JUMPDEST POP PUSH1 0xA0 DUP4 ADD MLOAD PUSH2 0x1703 PUSH1 0xA0 DUP7 ADD DUP3 PUSH2 0x12BE JUMP JUMPDEST POP PUSH1 0xC0 DUP4 ADD MLOAD PUSH2 0x1716 PUSH1 0xC0 DUP7 ADD DUP3 PUSH2 0x12BE JUMP JUMPDEST POP DUP1 SWAP2 POP POP SWAP3 SWAP2 POP POP JUMP JUMPDEST PUSH1 0x0 PUSH1 0x40 DUP3 ADD SWAP1 POP PUSH2 0x1736 PUSH1 0x0 DUP4 ADD DUP6 PUSH2 0x1542 JUMP JUMPDEST DUP2 DUP2 SUB PUSH1 0x20 DUP4 ADD MSTORE PUSH2 0x1748 DUP2 DUP5 PUSH2 0x1677 JUMP JUMPDEST SWAP1 POP SWAP4 SWAP3 POP POP POP JUMP JUMPDEST PUSH2 0x175A DUP2 PUSH2 0x15A0 JUMP JUMPDEST DUP3 MSTORE POP POP JUMP JUMPDEST PUSH1 0x0 PUSH1 0x20 DUP3 ADD SWAP1 POP PUSH2 0x1775 PUSH1 0x0 DUP4 ADD DUP5 PUSH2 0x1751 JUMP JUMPDEST SWAP3 SWAP2 POP POP JUMP JUMPDEST PUSH1 0x0 PUSH1 0x20 DUP3 DUP5 SUB SLT ISZERO PUSH2 0x1791 JUMPI PUSH2 0x1790 PUSH2 0x1576 JUMP JUMPDEST JUMPDEST PUSH1 0x0 PUSH2 0x179F DUP5 DUP3 DUP6 ADD PUSH2 0x1622 JUMP JUMPDEST SWAP2 POP POP SWAP3 SWAP2 POP POP JUMP JUMPDEST PUSH1 0x0 DUP3 DUP3 MSTORE PUSH1 0x20 DUP3 ADD SWAP1 POP SWAP3 SWAP2 POP POP JUMP JUMPDEST PUSH1 0x0 PUSH2 0x17C4 DUP3 PUSH2 0x137C JUMP JUMPDEST PUSH2 0x17CE DUP2 DUP6 PUSH2 0x17A8 JUMP JUMPDEST SWAP4 POP PUSH2 0x17DE DUP2 DUP6 PUSH1 0x20 DUP7 ADD PUSH2 0x1398 JUMP JUMPDEST PUSH2 0x17E7 DUP2 PUSH2 0x13C2 JUMP JUMPDEST DUP5 ADD SWAP2 POP POP SWAP3 SWAP2 POP POP JUMP JUMPDEST PUSH1 0x0 PUSH1 0xE0 DUP3 ADD SWAP1 POP PUSH2 0x1807 PUSH1 0x0 DUP4 ADD DUP11 PUSH2 0x1542 JUMP JUMPDEST DUP2 DUP2 SUB PUSH1 0x20 DUP4 ADD MSTORE PUSH2 0x1819 DUP2 DUP10 PUSH2 0x17B9 JUMP JUMPDEST SWAP1 POP DUP2 DUP2 SUB PUSH1 0x40 DUP4 ADD MSTORE PUSH2 0x182D DUP2 DUP9 PUSH2 0x17B9 JUMP JUMPDEST SWAP1 POP DUP2 DUP2 SUB PUSH1 0x60 DUP4 ADD MSTORE PUSH2 0x1841 DUP2 DUP8 PUSH2 0x17B9 JUMP JUMPDEST SWAP1 POP PUSH2 0x1850 PUSH1 0x80 DUP4 ADD DUP7 PUSH2 0x1542 JUMP JUMPDEST PUSH2 0x185D PUSH1 0xA0 DUP4 ADD DUP6 PUSH2 0x1542 JUMP JUMPDEST PUSH2 0x186A PUSH1 0xC0 DUP4 ADD DUP5 PUSH2 0x1542 JUMP JUMPDEST SWAP9 SWAP8 POP POP POP POP POP POP POP POP JUMP JUMPDEST PUSH1 0x0 DUP1 REVERT JUMPDEST PUSH1 0x0 DUP1 REVERT JUMPDEST PUSH32 0x4E487B7100000000000000000000000000000000000000000000000000000000 PUSH1 0x0 MSTORE PUSH1 0x41 PUSH1 0x4 MSTORE PUSH1 0x24 PUSH1 0x0 REVERT JUMPDEST PUSH2 0x18B8 DUP3 PUSH2 0x13C2 JUMP JUMPDEST DUP2 ADD DUP2 DUP2 LT PUSH8 0xFFFFFFFFFFFFFFFF DUP3 GT OR ISZERO PUSH2 0x18D7 JUMPI PUSH2 0x18D6 PUSH2 0x1880 JUMP JUMPDEST JUMPDEST DUP1 PUSH1 0x40 MSTORE POP POP POP JUMP JUMPDEST PUSH1 0x0 PUSH2 0x18EA PUSH2 0x156C JUMP JUMPDEST SWAP1 POP PUSH2 0x18F6 DUP3 DUP3 PUSH2 0x18AF JUMP JUMPDEST SWAP2 SWAP1 POP JUMP JUMPDEST PUSH1 0x0 PUSH8 0xFFFFFFFFFFFFFFFF DUP3 GT ISZERO PUSH2 0x1916 JUMPI PUSH2 0x1915 PUSH2 0x1880 JUMP JUMPDEST JUMPDEST PUSH2 0x191F DUP3 PUSH2 0x13C2 JUMP JUMPDEST SWAP1 POP PUSH1 0x20 DUP2 ADD SWAP1 POP SWAP2 SWAP1 POP JUMP JUMPDEST DUP3 DUP2 DUP4 CALLDATACOPY PUSH1 0x0 DUP4 DUP4 ADD MSTORE POP POP POP JUMP JUMPDEST PUSH1 0x0 PUSH2 0x194E PUSH2 0x1949 DUP5 PUSH2 0x18FB JUMP JUMPDEST PUSH2 0x18E0 JUMP JUMPDEST SWAP1 POP DUP3 DUP2 MSTORE PUSH1 0x20 DUP2 ADD DUP5 DUP5 DUP5 ADD GT ISZERO PUSH2 0x196A JUMPI PUSH2 0x1969 PUSH2 0x187B JUMP JUMPDEST JUMPDEST PUSH2 0x1975 DUP5 DUP3 DUP6 PUSH2 0x192C JUMP JUMPDEST POP SWAP4 SWAP3 POP POP POP JUMP JUMPDEST PUSH1 0x0 DUP3 PUSH1 0x1F DUP4 ADD SLT PUSH2 0x1992 JUMPI PUSH2 0x1991 PUSH2 0x1876 JUMP JUMPDEST JUMPDEST DUP2 CALLDATALOAD PUSH2 0x19A2 DUP5 DUP3 PUSH1 0x20 DUP7 ADD PUSH2 0x193B JUMP JUMPDEST SWAP2 POP POP SWAP3 SWAP2 POP POP JUMP JUMPDEST PUSH1 0x0 DUP1 PUSH1 0x0 DUP1 PUSH1 0x0 DUP1 PUSH1 0x0 PUSH1 0xE0 DUP9 DUP11 SUB SLT ISZERO PUSH2 0x19CA JUMPI PUSH2 0x19C9 PUSH2 0x1576 JUMP JUMPDEST JUMPDEST PUSH1 0x0 PUSH2 0x19D8 DUP11 DUP3 DUP12 ADD PUSH2 0x1622 JUMP JUMPDEST SWAP8 POP POP PUSH1 0x20 DUP9 ADD CALLDATALOAD PUSH8 0xFFFFFFFFFFFFFFFF DUP2 GT ISZERO PUSH2 0x19F9 JUMPI PUSH2 0x19F8 PUSH2 0x157B JUMP JUMPDEST JUMPDEST PUSH2 0x1A05 DUP11 DUP3 DUP12 ADD PUSH2 0x197D JUMP JUMPDEST SWAP7 POP POP PUSH1 0x40 DUP9 ADD CALLDATALOAD PUSH8 0xFFFFFFFFFFFFFFFF DUP2 GT ISZERO PUSH2 0x1A26 JUMPI PUSH2 0x1A25 PUSH2 0x157B JUMP JUMPDEST JUMPDEST PUSH2 0x1A32 DUP11 DUP3 DUP12 ADD PUSH2 0x197D JUMP JUMPDEST SWAP6 POP POP PUSH1 0x60 DUP9 ADD CALLDATALOAD PUSH8 0xFFFFFFFFFFFFFFFF DUP2 GT ISZERO PUSH2 0x1A53 JUMPI PUSH2 0x1A52 PUSH2 0x157B JUMP JUMPDEST JUMPDEST PUSH2 0x1A5F DUP11 DUP3 DUP12 ADD PUSH2 0x197D JUMP JUMPDEST SWAP5 POP POP PUSH1 0x80 PUSH2 0x1A70 DUP11 DUP3 DUP12 ADD PUSH2 0x1622 JUMP JUMPDEST SWAP4 POP POP PUSH1 0xA0 PUSH2 0x1A81 DUP11 DUP3 DUP12 ADD PUSH2 0x1622 JUMP JUMPDEST SWAP3 POP POP PUSH1 0xC0 PUSH2 0x1A92 DUP11 DUP3 DUP12 ADD PUSH2 0x1622 JUMP JUMPDEST SWAP2 POP POP SWAP3 SWAP6 SWAP9 SWAP2 SWAP5 SWAP8 POP SWAP3 SWAP6 POP JUMP JUMPDEST PUSH1 0x0 DUP2 SWAP1 POP SWAP3 SWAP2 POP POP JUMP JUMPDEST POP JUMP JUMPDEST PUSH1 0x0 PUSH2 0x1ABC PUSH1 0x0 DUP4 PUSH2 0x1AA1 JUMP JUMPDEST SWAP2 POP PUSH2 0x1AC7 DUP3 PUSH2 0x1AAC JUMP JUMPDEST PUSH1 0x0 DUP3 ADD SWAP1 POP SWAP2 SWAP1 POP JUMP JUMPDEST PUSH1 0x0 PUSH2 0x1ADD DUP3 PUSH2 0x1AAF JUMP JUMPDEST SWAP2 POP DUP2 SWAP1 POP SWAP2 SWAP1 POP JUMP JUMPDEST PUSH32 0x4E487B7100000000000000000000000000000000000000000000000000000000 PUSH1 0x0 MSTORE PUSH1 0x32 PUSH1 0x4 MSTORE PUSH1 0x24 PUSH1 0x0 REVERT JUMPDEST PUSH32 0x4E487B7100000000000000000000000000000000000000000000000000000000 PUSH1 0x0 MSTORE PUSH1 0x22 PUSH1 0x4 MSTORE PUSH1 0x24 PUSH1 0x0 REVERT JUMPDEST PUSH1 0x0 PUSH1 0x2 DUP3 DIV SWAP1 POP PUSH1 0x1 DUP3 AND DUP1 PUSH2 0x1B5D JUMPI PUSH1 0x7F DUP3 AND SWAP2 POP JUMPDEST PUSH1 0x20 DUP3 LT DUP2 SUB PUSH2 0x1B70 JUMPI PUSH2 0x1B6F PUSH2 0x1B16 JUMP JUMPDEST JUMPDEST POP SWAP2 SWAP1 POP JUMP JUMPDEST PUSH32 0x4E487B7100000000000000000000000000000000000000000000000000000000 PUSH1 0x0 MSTORE PUSH1 0x11 PUSH1 0x4 MSTORE PUSH1 0x24 PUSH1 0x0 REVERT JUMPDEST PUSH1 0x0 PUSH2 0x1BB0 DUP3 PUSH2 0x12B4 JUMP JUMPDEST SWAP2 POP PUSH32 0xFFFFFFFFFFFFFFFFFFFFFFFFFFFFFFFFFFFFFFFFFFFFFFFFFFFFFFFFFFFFFFFF DUP3 SUB PUSH2 0x1BE2 JUMPI PUSH2 0x1BE1 PUSH2 0x1B76 JUMP JUMPDEST JUMPDEST PUSH1 0x1 DUP3 ADD SWAP1 POP SWAP2 SWAP1 POP JUMP JUMPDEST PUSH1 0x0 DUP2 SWAP1 POP DUP2 PUSH1 0x0 MSTORE PUSH1 0x20 PUSH1 0x0 KECCAK256 SWAP1 POP SWAP2 SWAP1 POP JUMP JUMPDEST PUSH1 0x0 PUSH1 0x20 PUSH1 0x1F DUP4 ADD DIV SWAP1 POP SWAP2 SWAP1 POP JUMP JUMPDEST PUSH1 0x0 DUP3 DUP3 SHL SWAP1 POP SWAP3 SWAP2 POP POP JUMP JUMPDEST PUSH1 0x0 PUSH1 0x8 DUP4 MUL PUSH2 0x1C4F PUSH32 0xFFFFFFFFFFFFFFFFFFFFFFFFFFFFFFFFFFFFFFFFFFFFFFFFFFFFFFFFFFFFFFFF DUP3 PUSH2 0x1C12 JUMP JUMPDEST PUSH2 0x1C59 DUP7 DUP4 PUSH2 0x1C12 JUMP JUMPDEST SWAP6 POP DUP1 NOT DUP5 AND SWAP4 POP DUP1 DUP7 AND DUP5 OR SWAP3 POP POP POP SWAP4 SWAP3 POP POP POP JUMP JUMPDEST PUSH1 0x0 DUP2 SWAP1 POP SWAP2 SWAP1 POP JUMP JUMPDEST PUSH1 0x0 PUSH2 0x1C96 PUSH2 0x1C91 PUSH2 0x1C8C DUP5 PUSH2 0x12B4 JUMP JUMPDEST PUSH2 0x1C71 JUMP JUMPDEST PUSH2 0x12B4 JUMP JUMPDEST SWAP1 POP SWAP2 SWAP1 POP JUMP JUMPDEST PUSH1 0x0 DUP2 SWAP1 POP SWAP2 SWAP1 POP JUMP JUMPDEST PUSH2 0x1CB0 DUP4 PUSH2 0x1C7B JUMP JUMPDEST PUSH2 0x1CC4 PUSH2 0x1CBC DUP3 PUSH2 0x1C9D JUMP JUMPDEST DUP5 DUP5 SLOAD PUSH2 0x1C1F JUMP JUMPDEST DUP3 SSTORE POP POP POP POP JUMP JUMPDEST PUSH1 0x0 SWAP1 JUMP JUMPDEST PUSH2 0x1CD9 PUSH2 0x1CCC JUMP JUMPDEST PUSH2 0x1CE4 DUP2 DUP5 DUP5 PUSH2 0x1CA7 JUMP JUMPDEST POP POP POP JUMP JUMPDEST JUMPDEST DUP2 DUP2 LT ISZERO PUSH2 0x1D08 JUMPI PUSH2 0x1CFD PUSH1 0x0 DUP3 PUSH2 0x1CD1 JUMP JUMPDEST PUSH1 0x1 DUP2 ADD SWAP1 POP PUSH2 0x1CEA JUMP JUMPDEST POP POP JUMP JUMPDEST PUSH1 0x1F DUP3 GT ISZERO PUSH2 0x1D4D JUMPI PUSH2 0x1D1E DUP2 PUSH2 0x1BED JUMP JUMPDEST PUSH2 0x1D27 DUP5 PUSH2 0x1C02 JUMP JUMPDEST DUP2 ADD PUSH1 0x20 DUP6 LT ISZERO PUSH2 0x1D36 JUMPI DUP2 SWAP1 POP JUMPDEST PUSH2 0x1D4A PUSH2 0x1D42 DUP6 PUSH2 0x1C02 JUMP JUMPDEST DUP4 ADD DUP3 PUSH2 0x1CE9 JUMP JUMPDEST POP POP JUMPDEST POP POP POP JUMP JUMPDEST PUSH1 0x0 DUP3 DUP3 SHR SWAP1 POP SWAP3 SWAP2 POP POP JUMP JUMPDEST PUSH1 0x0 PUSH2 0x1D70 PUSH1 0x0 NOT DUP5 PUSH1 0x8 MUL PUSH2 0x1D52 JUMP JUMPDEST NOT DUP1 DUP4 AND SWAP2 POP POP SWAP3 SWAP2 POP POP JUMP JUMPDEST PUSH1 0x0 PUSH2 0x1D89 DUP4 DUP4 PUSH2 0x1D5F JUMP JUMPDEST SWAP2 POP DUP3 PUSH1 0x2 MUL DUP3 OR SWAP1 POP SWAP3 SWAP2 POP POP JUMP JUMPDEST PUSH2 0x1DA2 DUP3 PUSH2 0x137C JUMP JUMPDEST PUSH8 0xFFFFFFFFFFFFFFFF DUP2 GT ISZERO PUSH2 0x1DBB JUMPI PUSH2 0x1DBA PUSH2 0x1880 JUMP JUMPDEST JUMPDEST PUSH2 0x1DC5 DUP3 SLOAD PUSH2 0x1B45 JUMP JUMPDEST PUSH2 0x1DD0 DUP3 DUP3 DUP6 PUSH2 0x1D0C JUMP JUMPDEST PUSH1 0x0 PUSH1 0x20 SWAP1 POP PUSH1 0x1F DUP4 GT PUSH1 0x1 DUP2 EQ PUSH2 0x1E03 JUMPI PUSH1 0x0 DUP5 ISZERO PUSH2 0x1DF1 JUMPI DUP3 DUP8 ADD MLOAD SWAP1 POP JUMPDEST PUSH2 0x1DFB DUP6 DUP3 PUSH2 0x1D7D JUMP JUMPDEST DUP7 SSTORE POP PUSH2 0x1E63 JUMP JUMPDEST PUSH1 0x1F NOT DUP5 AND PUSH2 0x1E11 DUP7 PUSH2 0x1BED JUMP JUMPDEST PUSH1 0x0 JUMPDEST DUP3 DUP2 LT ISZERO PUSH2 0x1E39 JUMPI DUP5 DUP10 ADD MLOAD DUP3 SSTORE PUSH1 0x1 DUP3 ADD SWAP2 POP PUSH1 0x20 DUP6 ADD SWAP5 POP PUSH1 0x20 DUP2 ADD SWAP1 POP PUSH2 0x1E14 JUMP JUMPDEST DUP7 DUP4 LT ISZERO PUSH2 0x1E56 JUMPI DUP5 DUP10 ADD MLOAD PUSH2 0x1E52 PUSH1 0x1F DUP10 AND DUP3 PUSH2 0x1D5F JUMP JUMPDEST DUP4 SSTORE POP JUMPDEST PUSH1 0x1 PUSH1 0x2 DUP9 MUL ADD DUP9 SSTORE POP POP POP JUMPDEST POP POP POP POP POP POP JUMP JUMPDEST PUSH1 0x0 PUSH2 0x1E76 DUP3 PUSH2 0x12B4 JUMP JUMPDEST SWAP2 POP PUSH2 0x1E81 DUP4 PUSH2 0x12B4 JUMP JUMPDEST SWAP3 POP DUP3 DUP3 SUB SWAP1 POP DUP2 DUP2 GT ISZERO PUSH2 0x1E99 JUMPI PUSH2 0x1E98 PUSH2 0x1B76 JUMP JUMPDEST JUMPDEST SWAP3 SWAP2 POP POP JUMP JUMPDEST PUSH1 0x0 PUSH1 0x60 DUP3 ADD SWAP1 POP PUSH2 0x1EB4 PUSH1 0x0 DUP4 ADD DUP7 PUSH2 0x1751 JUMP JUMPDEST PUSH2 0x1EC1 PUSH1 0x20 DUP4 ADD DUP6 PUSH2 0x1542 JUMP JUMPDEST PUSH2 0x1ECE PUSH1 0x40 DUP4 ADD DUP5 PUSH2 0x1542 JUMP JUMPDEST SWAP5 SWAP4 POP POP POP POP JUMP JUMPDEST PUSH1 0x0 PUSH1 0x60 DUP3 ADD SWAP1 POP DUP2 DUP2 SUB PUSH1 0x0 DUP4 ADD MSTORE PUSH2 0x1EF0 DUP2 DUP7 PUSH2 0x17B9 JUMP JUMPDEST SWAP1 POP PUSH2 0x1EFF PUSH1 0x20 DUP4 ADD DUP6 PUSH2 0x1542 JUMP JUMPDEST PUSH2 0x1F0C PUSH1 0x40 DUP4 ADD DUP5 PUSH2 0x1542 JUMP JUMPDEST SWAP5 SWAP4 POP POP POP POP JUMP INVALID LOG2 PUSH5 0x6970667358 0x22 SLT KECCAK256 0xC4 0x5F PUSH7 0x6689B07953BBE8 0xE7 0xBD 0xAE 0xB9 DUP8 SWAP7 PUSH24 0xC0BB159AF8D4EA3DCCA4A282C1763B64736F6C6343000811 STOP CALLER "},"methodIdentifiers":{"buy(uint256)":"d96a094a","getAllItems()":"4ba1d6aa","itemCounter()":"6d6d00ed","items(uint256)":"bfb231d2","list(uint256,string,string,string,uint256,uint256,uint256)":"eea8a7e8","orderCount(address)":"713d856b","orders(address,uint256)":"793b8c6d","owner()":"8da5cb5b","withdraw()":"3ccfd60b"}}}}}