{
  "_format": "hh-sol-artifact-1",
  "contractName": "Zordshop",
  "sourceName": "contracts/Zordshop.sol",
  "abi": [
    {
      "inputs": [],
      "stateMutability": "nonpayable",
      "type": "constructor"
    },
    {
      "anonymous": false,
      "inputs": [
        {
          "indexed": false,
          "internalType": "address",
          "name": "buyer",
          "type": "address"
        },
        {
          "indexed": false,
          "internalType": "uint256",
          "name": "orderId",
          "type": "uint256"
        },
        {
          "indexed": false,
          "internalType": "uint256",
          "name": "itemId",
          "type": "uint256"
        }
      ],
      "name": "Buy",
      "type": "event"
    },
    {
      "anonymous": false,
      "inputs": [
        {
          "indexed": false,
          "internalType": "string",
          "name": "name",
          "type": "string"
        },
        {
          "indexed": false,
          "internalType": "uint256",
          "name": "cost",
          "type": "uint256"
        },
        {
          "indexed": false,
          "internalType": "uint256",
          "name": "quantity",
          "type": "uint256"
        }
      ],
      "name": "List",
      "type": "event"
    },
    {
      "inputs": [
        {
          "internalType": "uint256",
          "name": "_id",
          "type": "uint256"
        }
      ],
      "name": "buy",
      "outputs": [],
      "stateMutability": "payable",
      "type": "function"
    },
    {
      "inputs": [],
      "name": "getAllItems",
      "outputs": [
        {
          "internalType": "uint256[]",
          "name": "",
          "type": "uint256[]"
        },
        {
          "internalType": "string[]",
          "name": "",
          "type": "string[]"
        },
        {
          "internalType": "string[]",
          "name": "",
          "type": "string[]"
        },
        {
          "internalType": "string[]",
          "name": "",
          "type": "string[]"
        },
        {
          "internalType": "uint256[]",
          "name": "",
          "type": "uint256[]"
        },
        {
          "internalType": "uint256[]",
          "name": "",
          "type": "uint256[]"
        },
        {
          "internalType": "uint256[]",
          "name": "",
          "type": "uint256[]"
        }
      ],
      "stateMutability": "view",
      "type": "function"
    },
    {
      "inputs": [],
      "name": "itemCounter",
      "outputs": [
        {
          "internalType": "uint256",
          "name": "",
          "type": "uint256"
        }
      ],
      "stateMutability": "view",
      "type": "function"
    },
    {
      "inputs": [
        {
          "internalType": "uint256",
          "name": "",
          "type": "uint256"
        }
      ],
      "name": "items",
      "outputs": [
        {
          "internalType": "uint256",
          "name": "id",
          "type": "uint256"
        },
        {
          "internalType": "string",
          "name": "name",
          "type": "string"
        },
        {
          "internalType": "string",
          "name": "category",
          "type": "string"
        },
        {
          "internalType": "string",
          "name": "image",
          "type": "string"
        },
        {
          "internalType": "uint256",
          "name": "cost",
          "type": "uint256"
        },
        {
          "internalType": "uint256",
          "name": "rating",
          "type": "uint256"
        },
        {
          "internalType": "uint256",
          "name": "stock",
          "type": "uint256"
        }
      ],
      "stateMutability": "view",
      "type": "function"
    },
    {
      "inputs": [
        {
          "internalType": "uint256",
          "name": "_id",
          "type": "uint256"
        },
        {
          "internalType": "string",
          "name": "_name",
          "type": "string"
        },
        {
          "internalType": "string",
          "name": "_category",
          "type": "string"
        },
        {
          "internalType": "string",
          "name": "_image",
          "type": "string"
        },
        {
          "internalType": "uint256",
          "name": "_cost",
          "type": "uint256"
        },
        {
          "internalType": "uint256",
          "name": "_rating",
          "type": "uint256"
        },
        {
          "internalType": "uint256",
          "name": "_stock",
          "type": "uint256"
        }
      ],
      "name": "list",
      "outputs": [],
      "stateMutability": "nonpayable",
      "type": "function"
    },
    {
      "inputs": [
        {
          "internalType": "address",
          "name": "",
          "type": "address"
        }
      ],
      "name": "orderCount",
      "outputs": [
        {
          "internalType": "uint256",
          "name": "",
          "type": "uint256"
        }
      ],
      "stateMutability": "view",
      "type": "function"
    },
    {
      "inputs": [
        {
          "internalType": "address",
          "name": "",
          "type": "address"
        },
        {
          "internalType": "uint256",
          "name": "",
          "type": "uint256"
        }
      ],
      "name": "orders",
      "outputs": [
        {
          "internalType": "uint256",
          "name": "time",
          "type": "uint256"
        },
        {
          "components": [
            {
              "internalType": "uint256",
              "name": "id",
              "type": "uint256"
            },
            {
              "internalType": "string",
              "name": "name",
              "type": "string"
            },
            {
              "internalType": "string",
              "name": "category",
              "type": "string"
            },
            {
              "internalType": "string",
              "name": "image",
              "type": "string"
            },
            {
              "internalType": "uint256",
              "name": "cost",
              "type": "uint256"
            },
            {
              "internalType": "uint256",
              "name": "rating",
              "type": "uint256"
            },
            {
              "internalType": "uint256",
              "name": "stock",
              "type": "uint256"
            }
          ],
          "internalType": "struct Zordshop.Item",
          "name": "item",
          "type": "tuple"
        }
      ],
      "stateMutability": "view",
      "type": "function"
    },
    {
      "inputs": [],
      "name": "owner",
      "outputs": [
        {
          "internalType": "address",
          "name": "",
          "type": "address"
        }
      ],
      "stateMutability": "view",
      "type": "function"
    },
    {
      "inputs": [],
      "name": "withdraw",
      "outputs": [],
      "stateMutability": "nonpayable",
      "type": "function"
    }
  ],
  "bytecode": "0x608060405234801561001057600080fd5b50336000806101000a81548173ffffffffffffffffffffffffffffffffffffffff021916908373ffffffffffffffffffffffffffffffffffffffff160217905550611f4a806100606000396000f3fe6080604052600436106100865760003560e01c8063793b8c6d11610059578063793b8c6d1461013b5780638da5cb5b14610179578063bfb231d2146101a4578063d96a094a146101e7578063eea8a7e81461020357610086565b80633ccfd60b1461008b5780634ba1d6aa146100a25780636d6d00ed146100d3578063713d856b146100fe575b600080fd5b34801561009757600080fd5b506100a061022c565b005b3480156100ae57600080fd5b506100b761031e565b6040516100ca97969594939291906114a2565b60405180910390f35b3480156100df57600080fd5b506100e86108ae565b6040516100f59190611551565b60405180910390f35b34801561010a57600080fd5b50610125600480360381019061012091906115de565b6108b4565b6040516101329190611551565b60405180910390f35b34801561014757600080fd5b50610162600480360381019061015d9190611637565b6108cc565b604051610170929190611721565b60405180910390f35b34801561018557600080fd5b5061018e610ae5565b60405161019b9190611760565b60405180910390f35b3480156101b057600080fd5b506101cb60048036038101906101c6919061177b565b610b09565b6040516101de97969594939291906117f2565b60405180910390f35b61020160048036038101906101fc919061177b565b610ce3565b005b34801561020f57600080fd5b5061022a600480360381019061022591906119ab565b611133565b005b60008054906101000a900473ffffffffffffffffffffffffffffffffffffffff1673ffffffffffffffffffffffffffffffffffffffff163373ffffffffffffffffffffffffffffffffffffffff161461028457600080fd5b60008060009054906101000a900473ffffffffffffffffffffffffffffffffffffffff1673ffffffffffffffffffffffffffffffffffffffff16476040516102cb90611ad2565b60006040518083038185875af1925050503d8060008114610308576040519150601f19603f3d011682016040523d82523d6000602084013e61030d565b606091505b505090508061031b57600080fd5b50565b60608060608060608060606000600154905060008167ffffffffffffffff81111561034c5761034b611880565b5b60405190808252806020026020018201604052801561037a5781602001602082028036833780820191505090505b50905060008267ffffffffffffffff81111561039957610398611880565b5b6040519080825280602002602001820160405280156103cc57816020015b60608152602001906001900390816103b75790505b50905060008367ffffffffffffffff8111156103eb576103ea611880565b5b60405190808252806020026020018201604052801561041e57816020015b60608152602001906001900390816104095790505b50905060008467ffffffffffffffff81111561043d5761043c611880565b5b60405190808252806020026020018201604052801561047057816020015b606081526020019060019003908161045b5790505b50905060008567ffffffffffffffff81111561048f5761048e611880565b5b6040519080825280602002602001820160405280156104bd5781602001602082028036833780820191505090505b50905060008667ffffffffffffffff8111156104dc576104db611880565b5b60405190808252806020026020018201604052801561050a5781602001602082028036833780820191505090505b50905060008767ffffffffffffffff81111561052957610528611880565b5b6040519080825280602002602001820160405280156105575781602001602082028036833780820191505090505b50905060005b8881101561088757600260008281526020019081526020016000206000015488828151811061058f5761058e611ae7565b5b6020026020010181815250506002600082815260200190815260200160002060010180546105bc90611b45565b80601f01602080910402602001604051908101604052809291908181526020018280546105e890611b45565b80156106355780601f1061060a57610100808354040283529160200191610635565b820191906000526020600020905b81548152906001019060200180831161061857829003601f168201915b505050505087828151811061064d5761064c611ae7565b5b602002602001018190525060026000828152602001908152602001600020600201805461067990611b45565b80601f01602080910402602001604051908101604052809291908181526020018280546106a590611b45565b80156106f25780601f106106c7576101008083540402835291602001916106f2565b820191906000526020600020905b8154815290600101906020018083116106d557829003601f168201915b505050505086828151811061070a57610709611ae7565b5b602002602001018190525060026000828152602001908152602001600020600301805461073690611b45565b80601f016020809104026020016040519081016040528092919081815260200182805461076290611b45565b80156107af5780601f10610784576101008083540402835291602001916107af565b820191906000526020600020905b81548152906001019060200180831161079257829003601f168201915b50505050508582815181106107c7576107c6611ae7565b5b602002602001018190525060026000828152602001908152602001600020600401548482815181106107fc576107fb611ae7565b5b602002602001018181525050600260008281526020019081526020016000206005015483828151811061083257610831611ae7565b5b602002602001018181525050600260008281526020019081526020016000206006015482828151811061086857610867611ae7565b5b602002602001018181525050808061087f90611ba5565b91505061055d565b50868686868686869e509e509e509e509e509e509e50505050505050505090919293949596565b60015481565b60046020528060005260406000206000915090505481565b600360205281600052604060002060205280600052604060002060009150915050806000015490806001016040518060e00160405290816000820154815260200160018201805461091c90611b45565b80601f016020809104026020016040519081016040528092919081815260200182805461094890611b45565b80156109955780601f1061096a57610100808354040283529160200191610995565b820191906000526020600020905b81548152906001019060200180831161097857829003601f168201915b505050505081526020016002820180546109ae90611b45565b80601f01602080910402602001604051908101604052809291908181526020018280546109da90611b45565b8015610a275780601f106109fc57610100808354040283529160200191610a27565b820191906000526020600020905b815481529060010190602001808311610a0a57829003601f168201915b50505050508152602001600382018054610a4090611b45565b80601f0160208091040260200160405190810160405280929190818152602001828054610a6c90611b45565b8015610ab95780601f10610a8e57610100808354040283529160200191610ab9565b820191906000526020600020905b815481529060010190602001808311610a9c57829003601f168201915b505050505081526020016004820154815260200160058201548152602001600682015481525050905082565b60008054906101000a900473ffffffffffffffffffffffffffffffffffffffff1681565b6002602052806000526040600020600091509050806000015490806001018054610b3290611b45565b80601f0160208091040260200160405190810160405280929190818152602001828054610b5e90611b45565b8015610bab5780601f10610b8057610100808354040283529160200191610bab565b820191906000526020600020905b815481529060010190602001808311610b8e57829003601f168201915b505050505090806002018054610bc090611b45565b80601f0160208091040260200160405190810160405280929190818152602001828054610bec90611b45565b8015610c395780601f10610c0e57610100808354040283529160200191610c39565b820191906000526020600020905b815481529060010190602001808311610c1c57829003601f168201915b505050505090806003018054610c4e90611b45565b80601f0160208091040260200160405190810160405280929190818152602001828054610c7a90611b45565b8015610cc75780601f10610c9c57610100808354040283529160200191610cc7565b820191906000526020600020905b815481529060010190602001808311610caa57829003601f168201915b5050505050908060040154908060050154908060060154905087565b6000600260008381526020019081526020016000206040518060e001604052908160008201548152602001600182018054610d1d90611b45565b80601f0160208091040260200160405190810160405280929190818152602001828054610d4990611b45565b8015610d965780601f10610d6b57610100808354040283529160200191610d96565b820191906000526020600020905b815481529060010190602001808311610d7957829003601f168201915b50505050508152602001600282018054610daf90611b45565b80601f0160208091040260200160405190810160405280929190818152602001828054610ddb90611b45565b8015610e285780601f10610dfd57610100808354040283529160200191610e28565b820191906000526020600020905b815481529060010190602001808311610e0b57829003601f168201915b50505050508152602001600382018054610e4190611b45565b80601f0160208091040260200160405190810160405280929190818152602001828054610e6d90611b45565b8015610eba5780601f10610e8f57610100808354040283529160200191610eba565b820191906000526020600020905b815481529060010190602001808311610e9d57829003601f168201915b50505050508152602001600482015481526020016005820154815260200160068201548152505090508060800151341015610ef457600080fd5b60008160c0015111610f0557600080fd5b60006040518060400160405280428152602001838152509050600460003373ffffffffffffffffffffffffffffffffffffffff1673ffffffffffffffffffffffffffffffffffffffff1681526020019081526020016000206000815480929190610f6e90611ba5565b919050555080600360003373ffffffffffffffffffffffffffffffffffffffff1673ffffffffffffffffffffffffffffffffffffffff1681526020019081526020016000206000600460003373ffffffffffffffffffffffffffffffffffffffff1673ffffffffffffffffffffffffffffffffffffffff168152602001908152602001600020548152602001908152602001600020600082015181600001556020820151816001016000820151816000015560208201518160010190816110359190611d99565b50604082015181600201908161104b9190611d99565b5060608201518160030190816110619190611d99565b506080820151816004015560a0820151816005015560c08201518160060155505090505060018260c001516110969190611e6b565b60026000858152602001908152602001600020600601819055507f1cbc5ab135991bd2b6a4b034a04aa2aa086dac1371cb9b16b8b5e2ed6b036bed33600460003373ffffffffffffffffffffffffffffffffffffffff1673ffffffffffffffffffffffffffffffffffffffff16815260200190815260200160002054846000015160405161112693929190611e9f565b60405180910390a1505050565b60008054906101000a900473ffffffffffffffffffffffffffffffffffffffff1673ffffffffffffffffffffffffffffffffffffffff163373ffffffffffffffffffffffffffffffffffffffff161461118b57600080fd5b60006040518060e0016040528089815260200188815260200187815260200186815260200185815260200184815260200183815250905080600260008a81526020019081526020016000206000820151816000015560208201518160010190816111f59190611d99565b50604082015181600201908161120b9190611d99565b5060608201518160030190816112219190611d99565b506080820151816004015560a0820151816005015560c082015181600601559050507ffdbe2a012c10ec01592653978eaa09b5ca60b143a0e617505b2ebcbd911ec5b887858460405161127693929190611ed6565b60405180910390a15050505050505050565b600081519050919050565b600082825260208201905092915050565b6000819050602082019050919050565b6000819050919050565b6112c7816112b4565b82525050565b60006112d983836112be565b60208301905092915050565b6000602082019050919050565b60006112fd82611288565b6113078185611293565b9350611312836112a4565b8060005b8381101561134357815161132a88826112cd565b9750611335836112e5565b925050600181019050611316565b5085935050505092915050565b600081519050919050565b600082825260208201905092915050565b6000819050602082019050919050565b600081519050919050565b600082825260208201905092915050565b60005b838110156113b657808201518184015260208101905061139b565b60008484015250505050565b6000601f19601f8301169050919050565b60006113de8261137c565b6113e88185611387565b93506113f8818560208601611398565b611401816113c2565b840191505092915050565b600061141883836113d3565b905092915050565b6000602082019050919050565b600061143882611350565b611442818561135b565b9350836020820285016114548561136c565b8060005b858110156114905784840389528151611471858261140c565b945061147c83611420565b925060208a01995050600181019050611458565b50829750879550505050505092915050565b600060e08201905081810360008301526114bc818a6112f2565b905081810360208301526114d0818961142d565b905081810360408301526114e4818861142d565b905081810360608301526114f8818761142d565b9050818103608083015261150c81866112f2565b905081810360a083015261152081856112f2565b905081810360c083015261153481846112f2565b905098975050505050505050565b61154b816112b4565b82525050565b60006020820190506115666000830184611542565b92915050565b6000604051905090565b600080fd5b600080fd5b600073ffffffffffffffffffffffffffffffffffffffff82169050919050565b60006115ab82611580565b9050919050565b6115bb816115a0565b81146115c657600080fd5b50565b6000813590506115d8816115b2565b92915050565b6000602082840312156115f4576115f3611576565b5b6000611602848285016115c9565b91505092915050565b611614816112b4565b811461161f57600080fd5b50565b6000813590506116318161160b565b92915050565b6000806040838503121561164e5761164d611576565b5b600061165c858286016115c9565b925050602061166d85828601611622565b9150509250929050565b600060e08301600083015161168f60008601826112be565b50602083015184820360208601526116a782826113d3565b915050604083015184820360408601526116c182826113d3565b915050606083015184820360608601526116db82826113d3565b91505060808301516116f060808601826112be565b5060a083015161170360a08601826112be565b5060c083015161171660c08601826112be565b508091505092915050565b60006040820190506117366000830185611542565b81810360208301526117488184611677565b90509392505050565b61175a816115a0565b82525050565b60006020820190506117756000830184611751565b92915050565b60006020828403121561179157611790611576565b5b600061179f84828501611622565b91505092915050565b600082825260208201905092915050565b60006117c48261137c565b6117ce81856117a8565b93506117de818560208601611398565b6117e7816113c2565b840191505092915050565b600060e082019050611807600083018a611542565b818103602083015261181981896117b9565b9050818103604083015261182d81886117b9565b9050818103606083015261184181876117b9565b90506118506080830186611542565b61185d60a0830185611542565b61186a60c0830184611542565b98975050505050505050565b600080fd5b600080fd5b7f4e487b7100000000000000000000000000000000000000000000000000000000600052604160045260246000fd5b6118b8826113c2565b810181811067ffffffffffffffff821117156118d7576118d6611880565b5b80604052505050565b60006118ea61156c565b90506118f682826118af565b919050565b600067ffffffffffffffff82111561191657611915611880565b5b61191f826113c2565b9050602081019050919050565b82818337600083830152505050565b600061194e611949846118fb565b6118e0565b90508281526020810184848401111561196a5761196961187b565b5b61197584828561192c565b509392505050565b600082601f83011261199257611991611876565b5b81356119a284826020860161193b565b91505092915050565b600080600080600080600060e0888a0312156119ca576119c9611576565b5b60006119d88a828b01611622565b975050602088013567ffffffffffffffff8111156119f9576119f861157b565b5b611a058a828b0161197d565b965050604088013567ffffffffffffffff811115611a2657611a2561157b565b5b611a328a828b0161197d565b955050606088013567ffffffffffffffff811115611a5357611a5261157b565b5b611a5f8a828b0161197d565b9450506080611a708a828b01611622565b93505060a0611a818a828b01611622565b92505060c0611a928a828b01611622565b91505092959891949750929550565b600081905092915050565b50565b6000611abc600083611aa1565b9150611ac782611aac565b600082019050919050565b6000611add82611aaf565b9150819050919050565b7f4e487b7100000000000000000000000000000000000000000000000000000000600052603260045260246000fd5b7f4e487b7100000000000000000000000000000000000000000000000000000000600052602260045260246000fd5b60006002820490506001821680611b5d57607f821691505b602082108103611b7057611b6f611b16565b5b50919050565b7f4e487b7100000000000000000000000000000000000000000000000000000000600052601160045260246000fd5b6000611bb0826112b4565b91507fffffffffffffffffffffffffffffffffffffffffffffffffffffffffffffffff8203611be257611be1611b76565b5b600182019050919050565b60008190508160005260206000209050919050565b60006020601f8301049050919050565b600082821b905092915050565b600060088302611c4f7fffffffffffffffffffffffffffffffffffffffffffffffffffffffffffffffff82611c12565b611c598683611c12565b95508019841693508086168417925050509392505050565b6000819050919050565b6000611c96611c91611c8c846112b4565b611c71565b6112b4565b9050919050565b6000819050919050565b611cb083611c7b565b611cc4611cbc82611c9d565b848454611c1f565b825550505050565b600090565b611cd9611ccc565b611ce4818484611ca7565b505050565b5b81811015611d0857611cfd600082611cd1565b600181019050611cea565b5050565b601f821115611d4d57611d1e81611bed565b611d2784611c02565b81016020851015611d36578190505b611d4a611d4285611c02565b830182611ce9565b50505b505050565b600082821c905092915050565b6000611d7060001984600802611d52565b1980831691505092915050565b6000611d898383611d5f565b9150826002028217905092915050565b611da28261137c565b67ffffffffffffffff811115611dbb57611dba611880565b5b611dc58254611b45565b611dd0828285611d0c565b600060209050601f831160018114611e035760008415611df1578287015190505b611dfb8582611d7d565b865550611e63565b601f198416611e1186611bed565b60005b82811015611e3957848901518255600182019150602085019450602081019050611e14565b86831015611e565784890151611e52601f891682611d5f565b8355505b6001600288020188555050505b505050505050565b6000611e76826112b4565b9150611e81836112b4565b9250828203905081811115611e9957611e98611b76565b5b92915050565b6000606082019050611eb46000830186611751565b611ec16020830185611542565b611ece6040830184611542565b949350505050565b60006060820190508181036000830152611ef081866117b9565b9050611eff6020830185611542565b611f0c6040830184611542565b94935050505056fea2646970667358221220c45f666689b07953bbe8e7bdaeb9879677c0bb159af8d4ea3dcca4a282c1763b64736f6c63430008110033",
  "linkReferences": {},
  "deployedLinkReferences": {}
}